:020000040800F2
:10000000F025002045010008D50F0008D70F000893
:10001000DB0F0008DF0F0008E30F000800000000FE
:10002000000000000000000000000000E70F0008D2
:10003000E90F000800000000EB0F0008ED0F0008BA
:100040005F0100085F0100085F0100085F01000810
:100050005F0100085F0100085F0100085F01000800
:100060005F0100085F0100085F0100085F010008F0
:100070005F0100085F0100085F0100085F010008E0
:100080005F0100085F0100085F0100085F010008D0
:100090005F0100085F0100085F0100085F010008C0
:1000A0005F0100085F0100085F0100085F010008B0
:1000B0005F0100085F0100085F0100085F010008A0
:1000C0005F0100085F0100085F0100085F01000890
:1000D0005F010008EF0F0008611000085F010008D1
:1000E0005F0100085F0100085F0100085F01000870
:1000F0005F0100085F0100085F0100085F01000860
:100100005F0100085F0100085F0100085F0100084F
:100110005F0100085F0100085F0100085F0100083F
:100120005F0100085F0100085F0100085F0100082F
:10013000DFF80CD002F0B2FF004800472D0F000896
:10014000F02500200648804706480047FEE7FEE706
:10015000FEE7FEE7FEE7FEE7FEE7FEE7FEE7FEE777
:1001600047020008310100080CB500200190009002
:100170006C48006840F480306A49086000BF6948F4
:10018000006800F4003000900198401C0190009835
:1001900018B90198B0F5A06FF1D16248006800F479
:1001A000003010B10120009001E000200090009884
:1001B000012843D15C48006840F010005A490860AB
:1001C0000846006820F0030008600846006840F018
:1001D0000200086053484068524948600846406839
:1001E00048600846406840F48060486008464068BF
:1001F00020F47C1048600846406840F4E8104860ED
:100200000846006840F08070086000BF45480068FC
:1002100000F000700028F9D04248406820F0030048
:10022000404948600846406840F00200486000BF0E
:100230003C48406800F00C000828F9D10CBD10B50E
:10024000FFF792FF10BD10B53648006840F001007E
:1002500034490860084640683449084031494860DC
:1002600008460068324908402E4908600846006880
:1002700020F4802008600846406820F4FE004860B2
:100280004FF41F008860FFF7DAFF4FF00060294944
:10029000086010BD10B5002100200022214B5B68D2
:1002A00003F00C0121B1042906D0082928D107E068
:1002B000214B224C236027E01F4B204C236023E07E
:1002C000184B5B6803F47010164B5B6803F48032C4
:1002D000022303EB904022B9194B4343174C236090
:1002E0000DE0104B5B6803F4003323B1144B434320
:1002F000124C236003E0104B4343104C236003E097
:100300000D4B0E4C236000BF00BF064B5B68C3F370
:1003100003130C4CE15C094B1B68CB40074C23607A
:1003200010BD000000100240002002400000FFF855
:10033000FFFFF6FE08ED00E000127A00000000204A
:1003400000093D000400002031490143314A116099
:10035000704770B5002100230F22C47804B32D4CE0
:10036000246804F4E064C4F5E064210AC1F10403E4
:10037000CA40447804FA03F1847814402143090107
:10038000254C0678A155047804F01F050124AC40E3
:1003900005786D11AD0005F1E025C5F8004109E0D3
:1003A000047804F01F050124AC401C4D067876113A
:1003B00045F8264070BD1A4A0A400243154B1B1FE0
:1003C0001A60704739B1134A121D12680243114B6B
:1003D0001B1D1A6006E00F4A121D126882430D4B66
:1003E0001B1D1A607047042808D14FF0E0210969ED
:1003F00041F004014FF0E022116107E04FF0E021ED
:10040000096921F004014FF0E022116170470000FA
:100410000000FA050CED00E000E400E080E100E0FF
:1004200080FFFF1F10B50446CC48844208D101214B
:10043000042000F02DFB0021042000F029FB46E001
:10044000C748844208D10121082000F021FB002187
:10045000082000F01DFB3AE0C248844208D1012187
:10046000102000F015FB0021102000F011FB2EE001
:10047000BD48844208D10121202000F009FB002161
:10048000202000F005FB22E0B848844208D1012179
:10049000402000F0FDFA0021402000F0F9FA16E0BB
:1004A000B348844208D10121802000F0F1FA0021F4
:1004B000802000F0EDFA0AE0AE48844207D1012125
:1004C000801500F0E5FA0021A01500F0E1FA10BD5A
:1004D00010B50121084600F0DBFA0021012000F0F0
:1004E000D7FA10BD2DE9F041024600250026002074
:1004F00000230024002791F803C00CF00F0591F8A9
:1005000003C00CF0100CBCF1000F03D091F802C036
:100510004CEA050591F800C0BCF1000F31D0146819
:1005200000202BE04FF0010C0CFA00F3B1F800C0F2
:100530000CEA03069E4220D183004FF00F0C0CFA08
:1005400003F7BC4305FA03FC4CEA040491F803C02A
:10055000BCF1280F06D14FF0010C0CFA00FCC2F8D8
:1005600014C00AE091F803C0BCF1480F05D14FF068
:10057000010C0CFA00FCC2F810C0401C0828D1D3B2
:100580001460B1F800C0BCF1FF0F34DD54680020E6
:100590002EE000F1080C4FF0010808FA0CF3B1F856
:1005A00000C00CEA03069E4221D183004FF00F0CDD
:1005B0000CFA03F7BC4305FA03FC4CEA040491F877
:1005C00003C0BCF1280F05D100F1080C08FA0CF8A3
:1005D000C2F8148091F803C0BCF1480F07D100F1B4
:1005E000080C4FF0010808FA0CF8C2F81080401C03
:1005F0000828CED35460BDE8F0814FF6FF7101802A
:10060000022181700421C170704702460020936866
:100610000B400BB1012000E00020704701468868C4
:1006200080B2704702460020D3680B400BB1012016
:1006300000E0002070470146C86880B27047016141
:100640007047416170470AB1016100E04161704744
:10065000C16070474FF480320A43826181618261D8
:1006600082698269704702460020434B18684FF642
:100670008073184040EA021008433F4B18607047EF
:100680003E49C8617047F0B50A46002300240021A6
:10069000002500F00046B6F1004F02D1364EF16958
:1006A00001E0354E7168C0F3034583B200F4401693
:1006B000B6F5401F08D121F070612F4E766826F004
:1006C00070662D4F7E6012E000F48016B6F5801F34
:1006D00006D1032606FA05F4A14341F0706106E055
:1006E000460D360103FA06F6B14341F0706122B1BE
:1006F000460D360103FA06F6314300F00046B6F126
:10070000004F02D11C4EF16101E01B4E7160F0BD43
:1007100030B500228B071C0F0F2303FA04F2164B8F
:1007200008338C1053F824309343134C08348D1045
:1007300044F8253023468C1053F824308C07240FBE
:1007400000FA04F423430C4C08348D1044F825308F
:1007500030BD0A49DC3108607047000000080140E4
:10076000000C01400010014000140140001801403D
:10077000001C014000200140000001400000204218
:10078000DF48006840F00100DD4908600846406825
:10079000DC490840DA49486008460068DA49084000
:1007A000D74908600846006820F4802008600846A1
:1007B000406820F4FE0048604FF41F0088607047D6
:1007C000CF49096821F48031CD4A1160114609688A
:1007D00021F480211160B0F5803F03D0B0F5802F67
:1007E0000ED106E0C649096841F48031C44A11605F
:1007F00007E0C349096841F4A021C14A116000E043
:1008000000BF00BF704710B5014600220023002042
:100810004A11012A02D1BA4C236806E0022A02D109
:10082000B74C236A01E0B64C636A01F01F02012451
:1008300094401C400CB1012000E0002010BD38B5F0
:10084000002000900024002500BF3120FFF7DBFFCF
:1008500005460098401C00900098B0F5A06F01D0AC
:10086000002DF2D03120FFF7CEFF08B1012400E0C7
:100870000024204638BD01460020A14A106820F01F
:10088000F80040EAC10010607047A0490860704756
:10089000024600209A4B586820F47C1042EA01037B
:1008A0001843974B5860704798490866704701464F
:1008B0000020934A506820F00300084350607047BE
:1008C0008F48406800F00C007047014600208C4AB9
:1008D000506820F0F0000843506070470146002047
:1008E000874A506820F4E060084350607047014632
:1008F0000020834A506820F4605040EAC1005060F4
:10090000704729B17E4A527A02437D4B5A7204E005
:100910007B4A527A82437A4B5A7270477B49D8316C
:100920000860704701460020754A506820F4404036
:100930000843506070470021714A20321170704A9C
:1009400082F82010012802D004280AD104E00121F5
:100950006B4A2032117005E00521694A203211707E
:1009600000E000BF00BF70476949086070476449F4
:10097000096A0143624A1162704765494439086057
:10098000704730B500210022002400235C4D6D68C3
:1009900005F00C0121B1042905D0082923D105E077
:1009A0005C4D056022E05B4D05601FE0544D6D68B5
:1009B00005F47012524D6D6805F48034022505EB84
:1009C00092421CB9544D554305600BE04C4D6D6887
:1009D00005F400351DB1504D5543056002E04D4D05
:1009E0005543056002E04B4D056000BF00BF444D1C
:1009F0006D6805F0F0010909484D6B5C0568DD4044
:100A000045603F4D6D6805F4E061090A434D6B5C3C
:100A10004568DD4085603A4D6D6805F46051C90A4E
:100A20003E4D6B5C4568DD40C560354D6D6805F435
:100A30004041890B3A4D6B5CC568B5FBF3F5056128
:100A400030BD29B12E4A526902432D4B5A6104E050
:100A50002B4A526982432A4B5A61704729B1284A6E
:100A600092690243264B9A6104E0254A92698243C7
:100A7000234B9A61704729B1214AD2690243204B26
:100A8000DA6104E01E4AD26982431D4BDA61704785
:100A900029B11B4AD2680243194BDA6004E0184AB4
:100AA000D2688243164BDA60704729B1144A126942
:100AB0000243134B1A6104E0114A12698243104B3E
:100AC0001A61704712494039086070470F49C8647D
:100AD00070470B49C87170470948406A40F0807000
:100AE00007494862704701460020054A92680A405B
:100AF0000AB1012000E00020704701498872704768
:100B0000001002400000FFF8FFFFF6FE0000424226
:100B10008004424200127A0000093D0014000020C7
:100B20002400002010B50446FB48844209D101216D
:100B30008803FFF7ADFF00214FF48040FFF7A8FFC7
:100B400032E0F648844209D101214804FFF7ADFFA5
:100B500000214FF40030FFF7A8FF25E0F048844261
:100B600009D101218804FFF7A0FF00214FF4802064
:100B7000FFF79BFF18E0EB48844209D10121C8042C
:100B8000FFF793FF00214FF40020FFF78EFF0BE0EB
:100B9000E548844208D101210805FFF786FF0021BE
:100BA0004FF48010FFF781FF10BD2DE9F04786B0AC
:100BB00005460E460024A24600BFA1460027B08984
:100BC00000B100BF2F462C8A4CF6FF700440F0881D
:100BD00004432C82AC894EF6F3100440B08831896E
:100BE0000843718908430443AC81AC8A4FF6FF4047
:100BF0000440B0890443AC8201A8FFF7C2FEC64896
:100C0000874202D1DDF810A001E0DDF80CA0A88930
:100C100000F4004040B10AEBCA0000EB0A10316852
:100C20004900B0FBF1F807E00AEBCA0000EB0A103C
:100C300031688900B0FBF1F86420B8FBF0F00401E2
:100C40002009642101FB1089A88900F4004040B10B
:100C5000322000EBC900B0FBF1F000F007000443C4
:100C600008E0322000EB09106421B0FBF1F000F045
:100C70000F0004432C8106B0BDE8F0874FF41651F5
:100C8000016000218180C18001810C21418100210E
:100C90008181704710B502460020108A4FF2FF0391
:100CA00018400B884C8823438C882343CC882343EB
:100CB0001843108210BD0021018041808180C180D5
:100CC000704721B1828942F40052828104E0828916
:100CD0004DF6FF731A4082817047F0B50346002439
:100CE00000260025002040F66A17B94200D100BF57
:100CF0001846C1F3421401F01F06012707FA06F552
:100D0000012C01D10C3004E0022C01D1103000E0A4
:100D100014301AB107682F43076002E00768AF4339
:100D20000760F0BD1AB1838A0B43838202E0838A95
:100D30008B4383827047028A4FF6F0731A40028217
:100D4000028A0A430282704782894FF2FF731A4077
:100D5000828182890A438281704721B1828942F06F
:100D60000202828104E082894FF6FD731A4082817B
:100D70007047028A4FF6DF731A400282028A0A43E2
:100D80000282704721B1028A42F48042028204E06A
:100D9000028A4BF6FF731A4002827047C1F30802C1
:100DA0008280704701468888C0F3080070478189B7
:100DB00041F0010181817047028BD2B20283028B24
:100DC00042EA012202837047028B02F47F420283CF
:100DD000028B0A430283704721B1828A42F02002CB
:100DE000828204E0828A4FF6DF731A408282704763
:100DF00021B1828A42F01002828204E0828A4FF698
:100E0000EF731A408282704721B1828A42F0080251
:100E1000828204E0828A4FF6F7731A40828270471A
:100E200021B1828942F40042828103E08289C2F3C7
:100E30000E028281704721B1828A42F4006282826E
:100E400004E0828A4FF2FF731A4082827047828ADE
:100E50004FF6FB731A408282828A0A43828270476D
:100E600021B1828A42F00202828204E0828A4FF635
:100E7000FD731A408282704702460020B1F5007F60
:100E800000D100BF13880B400BB1012000E000200F
:100E9000704701F40072B2F5007F00D100BFCA4371
:100EA0000280704770B50246002400230025002010
:100EB00040F66A16B14200D100BFC1F3421501F0FD
:100EC0001F03012606FA03F3012D02D19689334050
:100ED00006E0022D02D1168A334001E0968A3340A3
:100EE0000C12012606FA04F41688344013B10CB132
:100EF000012000E0002070BD10B50022002340F664
:100F00006A14A14200D100BF0A1201249440A3B286
:100F1000DC43048010BD0000003801400044004064
:100F200000480040004C00400050004001F03CFEF2
:100F300000F0EFF900F09CF901F00EFA00F010FB60
:100F400000F0BEFF35E04FF400711A4801F015FAC9
:100F500000282CD1102318A20021084601F0ACFC77
:100F6000102315A21121002001F0A6FC01F0FBFACC
:100F70001549164800F0F9F81548B0F80004C00B00
:100F8000A8B1002240F225511048FFF7A6FE00202C
:100F90000F49B1F80014C1F30E010D4A505400F08E
:100FA0007FFE012240F225510848FFF796FE01F02E
:100FB000DAFAC8E7000C0140202020202020202061
:100FC0002020202020200000A44E000800440040E3
:100FD00068150020704700BFFEE700BFFEE700BFB6
:100FE000FEE700BFFEE7704770477047704710B5D7
:100FF00040F225513C48FFF755FFD8B13A48FFF77A
:10100000D1FEC4B23948B0F80004C0F30E0040F27B
:10101000FF3188420EDA3549B1F80014C1F30E00F1
:10102000411C324AB2F8002461F30E022F49A1F8A4
:1010300000240C5440F224412B48FFF733FF0128D1
:101040000DD12A48B0F8000420F4004000F500401B
:101050002649A1F800042448FFF7A4FEC4B210BD3D
:1010600010B540F225512248FFF71CFFD8B12048A7
:10107000FFF798FEC4B21F48B0F80004C0F30E009A
:1010800040F2FF3188420EDA1A49B1F80014C1F378
:101090000E00411C174AB2F8002461F30E021549F4
:1010A000A1F800240C5440F224411148FFF7FAFE45
:1010B000012817D10F48B0F8000420F4004000F5D3
:1010C00000400C49A1F800040948FFF76BFEC4B2C8
:1010D00009A1084801F038FE08B1012000E0002015
:1010E0000849087010BD0000003801406A1900204E
:1010F0000044004068150020434C4F5345440D0AFE
:101100000000000028000020F0B503460D461646FA
:10111000002729460A2E03D0002008702846F0BD7B
:1011200033B9302001F8010B002008702846F6E79B
:10113000002B03DA2D2001F8010B5B4242F2107202
:101140000DE093FBF2F404B937B104F1300001F87B
:10115000010B04FB123301270A2092FBF0F2002A54
:10116000EFDC002008702846D9E70FB470B586B0D0
:1011700006460CA8019073E00B9800785C281CD1FF
:101180000B98401C0B9000786E2809D072280FD164
:101190000D213046FFF702FE0B98401C0B900BE030
:1011A0000A213046FFF7FAFD0B98401C0B9003E034
:1011B0000B98401C0B9000BF4BE00B980078252843
:1011C00040D10B98401C0B900078642818D07328ED
:1011D00033D1019810C801900BE021783046FFF719
:1011E000DDFD00BF80213046FFF746FE0028F9D024
:1011F000641C20780028F0D10B98401C0B9020E054
:10120000019820C801900A2202A92846FFF77CFF16
:1012100002AC0BE021783046FFF7C0FD00BF802113
:101220003046FFF729FE0028F9D0641C20780028FA
:10123000F0D10B98401C0B9003E00B98401C0B90D6
:1012400000BF06E00B9810F8011B0B903046FFF72B
:10125000A5FD00BF80213046FFF70EFE0028F9D023
:101260000B980078002887D106B070BC5DF814FB9D
:101270001A48006840F0807018490860002018493A
:1012800048600846006840F0010008607047144854
:101290004068704731B5002312480068124DB0FB1A
:1012A000F5F0009D00FB05F400BFFFF7F0FF0246DC
:1012B00011E0FFF7ECFF014691420CD0914202D9B8
:1012C000881A034403E0C2F1FF30084403440A468D
:1012D000A34200D300E0ECE700BF38BDFCED00E026
:1012E000001000E00000002040420F0008B54FF45D
:1012F000A060FFF729F825208DF8000001208DF867
:1013000001008DF802008DF803006846FFF721F810
:1013100008BD00B585B001210420FFF79FFB012126
:101320008803FFF79BFB4FF40070ADF81000182006
:101330008DF8130003208DF8120004A94948FFF727
:10134000D1F84FF48060ADF8100004208DF8130040
:1013500004A94448FFF7C6F84FF4E130009000209C
:10136000ADF80400ADF80600ADF80800ADF80C00CB
:101370000C20ADF80A0069463B48FFF716FCFFF762
:10138000B5FF012240F225513748FFF7A6FC0122A4
:1013900040F224413448FFF7A0FC01213248FFF716
:1013A00090FC05B000BD70B504460D4629462046A8
:1013B000FFF7F4FC00BF80212046FFF75DFD002809
:1013C000F9D070BD70B506460C46002500BF615DC2
:1013D0003046FFF7E8FF6D1C605D0028F7D100BFC5
:1013E00040213046FFF748FD0028F9D070BD2DE9B7
:1013F000F04105460C46260AE7B231462846FFF77B
:10140000CDFC00BF80212846FFF736FD0028F9D02B
:1014100039462846FFF7C2FC00BF80212846FFF767
:101420002BFD0028F9D0BDE8F08170B504460D46CB
:10143000E1B20D48FFF7B2FC00BF80210A48FFF778
:101440001BFD0028F9D0204670BD10B5044600BF32
:1014500020210548FFF710FD0028F9D00248FFF7CA
:10146000A1FC10BD000801400038014008B54FF450
:10147000A060FEF769FF26208DF8000000208DF89F
:1014800001008DF8020001208DF803006846FEF788
:1014900060FF08BD00B585B001214804FFF7EBFAF5
:1014A00001210420FFF7DAFA0420ADF8100018201B
:1014B0008DF8130003208DF8120004A9FB48FFF7F4
:1014C00011F80820ADF8100004208DF8130004A9CD
:1014D000F648FFF707F84FF4E13000900020ADF830
:1014E0000400ADF80600ADF80800ADF80C000C20C3
:1014F000ADF80A006946EE48FFF757FB012240F2BB
:101500002551EB48FFF7E9FB012240F22441E8486E
:10151000FFF7E3FBFFF7AAFF0121E548FFF7D1FB47
:1015200005B000BD08B501210420FFF797FA20207F
:10153000ADF8000010208DF8030003208DF80200A4
:101540006946DA48FEF7CEFF01210420FFF786FA4C
:101550001020ADF800006946D448FEF7C3FF08BD6F
:1015600010B5FFF7DFFFFFF795FF1021CF48FFF71A
:1015700066F82021CD48FFF764F810BD10B51021A2
:10158000CA48FFF75EF8CB48FFF784FE1021C74832
:10159000FFF755F810BD2DE9F04106460C461546FB
:1015A0001F46C548B0F800046FF30E00C249A1F809
:1015B00000043246C1A1BE48FFF7D7FD1CB915B9DA
:1015C0000120BDE8F0814FF47A7107FB01F0FFF7CD
:1015D00061FE0020B849B1F80014C1F30E01B64A0B
:1015E00050541146B7A001F047FFB348B0F80004CB
:1015F0006FF30E00B049A1F800040846B0F80004EB
:1016000020F40040A1F80004B4B1ADB12146AA48CD
:1016100001F09AFB08B1012000E0002040B9294602
:10162000A54801F091FB08B1012000E0002008B1BD
:101630000120C6E70020C4E744B121469E4801F0DE
:1016400083FB08B10120BCE70020BAE729469A488D
:1016500001F07AFB08B10120B3E70020B1E710B533
:10166000002410219148FEF7EAFF97A001F004FF43
:101670009948FFF70FFE15E0214698A001F0FCFE07
:101680004FF4FA7300229BA19BA0FFF784FF28B1BF
:1016900021469AA001F0F0FE012010BDFFF76EFF79
:1016A000601CC4B20A2CE7DB0020F6E710B5044644
:1016B00024B1012C0AD0022C18D10FE040F6C4133B
:1016C00095A28CA197A0FFF766FF10BD40F6C4134A
:1016D00091A288A196A0FFF75EFFF6E740F6C4133B
:1016E0008DA284A195A0FFF756FFEEE70020ECE75E
:1016F00030B59FB004460D462B46224692A101A864
:1017000001F0CAFE41F2883300227AA101A8FFF756
:1017100042FF1FB030BD70B5A0B004460D4616465E
:101720002B4622468DA102A8009601F0B5FE4FF48B
:101730007A7300226FA102A8FFF72DFF20B070BDC1
:1017400010B586B004460CB1012000E0002002462E
:1017500088A101A801F0A0FE4FF4FA73002265A150
:1017600001A8FFF718FF06B010BDF0B5B9B00646E6
:101770000F4614461D46642120A801F0DAFA16B17E
:10178000012E10D107E03B467EA27FA120A8009445
:1017900001F082FE08E03B467FA27BA120A80094D6
:1017A00001F07AFE00E000BF00BF052D06DA20AB95
:1017B0002A467AA102A801F06FFE04E020AA7CA1CB
:1017C00002A801F069FE4FF47A637DA249A102A844
:1017D000FFF7E1FE39B0F0BD70B5BCB004460D4670
:1017E0001646FCB12B46012279A11EA801F054FE39
:1017F00032467CA1684601F04FFE4FF4FA73002296
:101800003CA11EA8FFF7C7FE50B14FF4FA730022A7
:1018100038A16846FFF7BFFE10B101203CB070BD93
:101820000020FBE72B46002269A11EA801F034FE30
:101830004FF4FA7300222FA11EA8FFF7ACFEEDE7CC
:1018400010B54FF4FA7300222AA16AA0FFF7A3FE95
:10185000A0B16CA1184801F077FA08B1022010BDC0
:101860006BA1154801F070FA08B10320F7E76BA1EE
:10187000114801F069FA08B10420F0E70020EEE712
:1018800010B500244FF4FA7300221AA159A0FFF7F3
:1018900082FE002808D064A1074801F055FA10B173
:1018A00044F00104CAE0C7E0F0E000000008014095
:1018B0000044004020A107006815002025730D0A90
:1018C00000000000257300000D0A4154B2E2CAD4A2
:1018D0002E2E2E2E2E0D0A0080841E000D0A41543D
:1018E000B2E2CAD4B4CECAFD2025642E2E2E2E2EEE
:1018F0002E0D0A004F4B0000415400000D0A4154C8
:10190000B2E2CAD4C6F4B6AFB3C9B9A62025642ED4
:101910002E2E2E2E2E0D0A006E6F206368616E67CC
:101920006500000041542B43574D4F44453D310065
:1019300041542B43574D4F44453D320041542B43B6
:10194000574D4F44453D330041542B43574A415076
:101950003D222573222C22257322000041542B4363
:10196000575341503D222573222C222573222C31BE
:101970002C25640041542B4349504D55583D256456
:101980000000000054435000222573222C222573AE
:10199000222C2573000000005544500041542B4375
:1019A000495053544152543D25642C257300000086
:1019B00041542B43495053544152543D2573000028
:1019C000414C5245415920434F4E4E45435400002F
:1019D00041542B4349505345525645523D25642CA2
:1019E0002573000041542B43495053544F3D2573F8
:1019F0000000000041542B43495053544154555367
:101A0000000000005354415455533A320D0A00006F
:101A10005354415455533A330D0A00005354415422
:101A200055533A340D0A00002B4349505354415446
:101A300055533A302C00000024F0010468A16C4892
:101A400001F082F910B144F0020401E024F0020434
:101A500068A1674801F078F910B144F0040401E08E
:101A600024F0040467A1624801F06EF910B144F05B
:101A7000080401E024F0080466A15D4801F064F95F
:101A800010B144F0100401E024F01004204610BD11
:101A90002DE9F04105460F464FF4FA730022AFF2EC
:101AA000AC1160A0FFF777FD61A1514801F04CF93E
:101AB00006460EB1B61D02E00020BDE8F08100240C
:101AC00009E0305D2855285D222802D100202855E4
:101AD00003E0601CC4B2BC42F3DB00BF0120ECE7B2
:101AE00010B54FF4FA730022AFF2F81152A0FFF7CD
:101AF00052FD08B9002010BD4FF4FA7352A2AFF2A4
:101B00000C2152A0FFF747FDF5E710B55248FFF74B
:101B1000C1FB52A15248FFF728FB5248FFF7BAFB1E
:101B200010BD2DE9F04186B007460C4615461E460D
:101B30004FF0000847B12246AFF278214848FFF73E
:101B400014FB4FF001081BE0052E06DAAB1C3246F1
:101B500045A101A801F0A0FC04E0AA1C47A101A82E
:101B600001F09AFC6423002248A101A8FFF713FDAD
:101B70004FF4FA73002246A12046FFF70CFD804681
:101B8000404606B0BDE8F08170B50446002518480F
:101B9000B0F800046FF30E001549A1F800040846E0
:101BA000B0F8000420F40040A1F8000400BF104881
:101BB000B0F80004C00B0028F9D000200C49B1F89F
:101BC0000014C1F30E010A4A50540CB1154605E049
:101BD00031A1074801F0B8F800B1054D284670BDA5
:101BE0002B4349505354415455533A312C00000073
:101BF000681500202B4349505354415455533A32F1
:101C00002C0000002B4349505354415455533A3350
:101C10002C0000002B4349505354415455533A343F
:101C20002C00000041542B43494653520000000051
:101C3000415049502C22000041542B4349504D4FF4
:101C400044453D31000000003E00000041542B435C
:101C5000495053454E44000040420F002B2B2B00AF
:101C60000044004020A1070041542B4349505345F4
:101C70004E443D25642C25640000000041542B4354
:101C8000495053454E443D25640000003E2000006D
:101C900053454E44204F4B002B4950440000000058
:101CA00010B58CB0FBA001F0E7FB1023012200214E
:101CB000084600F067FE102302220021112000F0E8
:101CC00061FE1023F7A20021222000F0F5FD102371
:101CD00003220021292000F055FE102304220021B8
:101CE0003A2000F04FFEF0A1F14801F02DF8044633
:101CF000E41D01AAEFA1204601F046F810230722B7
:101D00001946002000F03EFE10230822194611203B
:101D100000F038FE1023E3A21946222000F0CCFD8B
:101D2000E6A001F0A9FBE7A101A801F01FF878B92E
:101D3000E6A001F0A1FB102309221946292000F09A
:101D400021FE1023E2A219463A2000F0B5FD56E02C
:101D5000E0A101A801F00AF878B9E1A001F08CFB3C
:101D600010230A221946292000F00CFE10230B2212
:101D700019463A2000F006FE41E0DBA101A800F080
:101D8000F5FF78B9DBA001F077FB10230C22194690
:101D9000292000F0F7FD10230D2219463A2000F00B
:101DA000F1FD2CE0D5A101A800F0E0FF78B9D5A0A5
:101DB00001F062FB10230E221946292000F0E2FDFB
:101DC00010230F2219463A2000F0DCFD17E0CFA1C6
:101DD00001A800F0CBFF48B9CEA001F04DFB1023C5
:101DE0001A461946292000F0CDFD08E0CAA001F0EE
:101DF00043FB10231A461946292000F0C3FDC8A151
:101E0000AB4800F0A1FF04460E340DF10E02C7A14D
:101E1000204600F0B9FF9DF80E10C5A001F02CFB84
:101E2000102305222021002000F0ACFD1023062203
:101E30002021112000F0A6FD10239AA220212220AB
:101E400000F03AFD102000909DF80E200223202182
:101E50002B2000F05DFD1023002220213C2000F00B
:101E600091FDB6A1924800F06FFF04460E340DF1CB
:101E70000F02B5A1204600F087FFB5A001F0FCFAE3
:101E80000DF10F01B4A001F0F7FA10231122302157
:101E9000002000F077FD102312223021112000F0E5
:101EA00071FD10237FA23021222000F005FD1023B8
:101EB0000DF10F023021282000F0FEFC0CB010BD07
:101EC00010B5A6A001F0D8FAABA001F0D5FA102306
:101ED000AFA20021084600F0EFFC00F044FB2021F7
:101EE000AF48FEF7ACFB1023AEA20021084600F07D
:101EF000E3FC00F038FB00BFFFF7B1FB0028FBD08C
:101F00001023ACA21121002000F0D6FC00F02BFB26
:101F1000A9A001F0B1FA1023AFA20021084600F0F9
:101F2000CBFC1023B0A21121002000F0C5FC00F072
:101F30001AFB00BF0020FFF7B9FB0028FAD01023DE
:101F40009CA21121002000F0B7FC00F00CFBA7A020
:101F500001F092FA1023ACA20021084600F0ACFC7C
:101F60001023A1A21121002000F0A6FC00F0FBFA32
:101F700000BFA9A1ABA0FFF7BBFB0028F9D010233D
:101F80008CA21121002000F097FC00F0ECFAA8A030
:101F900001F072FA00BF0020FFF7D2FB0028FAD050
:101FA000A9A001F069FA1023AEA20021084600F0B2
:101FB00083FC10238CA21121002000F07DFC00F096
:101FC000D2FA00BF0523ABA2ABA10020FFF7CDFBE7
:101FD0000028F7D0102377A21121002000F06CFC1C
:101FE00000F0C1FAA9A001F047FA1023AEA2002127
:101FF000084600F061FC10237BA21121002000F0B4
:102000005BFC00F0B0FA00BFFFF76AFD0028FBD0D0
:10201000102368A21121002000F04EFC00F0A3FA6A
:10202000A5A001F029FAAAA001F026FA1023ADA27A
:102030000021084600F040FC1023AEA21121002030
:1020400000F03AFC00F08FFA10BD10B5AD480078F2
:1020500000281DD0FFF759FD00BFFFF7F1FB044634
:10206000002CFAD0042C14D1A7A001F005FA00BF6F
:1020700069A16CA0FFF73CFB0028F9D000BF052345
:102080007CA27DA10020FFF770FB0028F7D04BE178
:1020900052E14CE10ACEBBD6C3A3BAD6A3D6DD0A21
:1020A000000000003A000000746578740000000031
:1020B00068150020255B5E225D000000CCECC6F8B0
:1020C000A3BA000048617A6500000000F6B20A0079
:1020D000202020004F766572636173740000000059
:1020E000D2F5CCEC0A0000004C696768742072617C
:1020F000696E0000D0A1D3EA0A000000436C6F753E
:1021000064790000B6E0D4C60A000000436C656143
:1021100072000000C7E70A00CEB4D6AA0000000093
:1021200074656D7065726174757265002532640046
:10213000CEC2B6C8A3BA2564A1E30A006C61737469
:102140005F75706461746500255B5E545D0000001E
:10215000C8D5C6DA3A00000025730A000D0AD5FD7D
:10216000D4DAC5E4D6C32045535038323636202E53
:102170002E2E2E2E2E0D0A000D0ACAB9C4DC2045C3
:10218000535038323636202E2E2E2E2E2E0D0A008B
:10219000456E61626C65204553503832363600001A
:1021A0000008014041542054657374202E2E2E2EB9
:1021B0002E2E00004F4B00000D0AD5FDD4DAC5E4E9
:1021C000D6C3B9A4D7F7C4A3CABD20535441202E07
:1021D0002E2E2E2E2E0D0A00536574205354415F6F
:1021E0004D6F6465202E0000202000000D0AD5FDF3
:1021F000D4DAC1ACBDD32057694669202E2E2E2ECD
:102200002E2E0D0A000000004C696E6B20574946C7
:1022100049202E2E2E2E0000683132333435362ED2
:10222000000000005265646D69204B3430000000EE
:102230000D0ABDFBD6B9B6E0C1ACBDD3202E2E2E03
:102240002E2E2E0D0A0000000D0AD5FDD4DAC1ACE9
:10225000BDD3D0C4D6AACCECC6F8202E2E2E2E2E5E
:102260002E0D0A004C696E6B2053657276657220E4
:102270002E2E2E00383000006170692E73656E6955
:1022800076657273652E636F6D0000000D0ABDF8F0
:10229000C8EBCDB8B4ABB7A2CBCDC4A3CABD202E7A
:1022A0002E2E2E2E2E0D0A0053656E64206D6F6447
:1022B00065202E2E2E0000000D0AC5E4D6C3204551
:1022C00053503832363620CDEAB1CF0D0A00000027
:1022D0000D0ABFAACABCCDB8B4AB2E2E2E2E2E2E00
:1022E0000D0A000046696E697368202020202020B6
:1022F00020202000507265737320646F776E204B2E
:1023000031200000280000200D0AD5FDD4DAD6D8EF
:10231000C1ACC8C8B5E3BACDB7FECEF1C6F7202E22
:102320002E2E2E2E2E0D0A0004A001F0A5F800BFBF
:10233000FFF7D6FB0028FBD010BD00000D0AD6D851
:10234000C1ACC8C8B5E3BACDB7FECEF1C6F7B3C9C4
:10235000B9A60D0A0000000008B501210820FEF70B
:102360007DFB4FF40070ADF8000004208DF80300F1
:1023700069460B48FEF7B6F808BD70B504460D4631
:1023800029462046FEF741F940B900BF29462046BC
:10239000FEF73BF90028F9D0002070BD0120FCE7D2
:1023A000000C014030B50146B1F1807F01D301201E
:1023B00030BD21F07F40401E4FF0E02250615017A9
:1023C0000F22002807DA13071D0E244B00F00F041C
:1023D000241F1D5503E013071C0E214B1C5400BF86
:1023E00000204FF0E0229061072010610020DFE71D
:1023F00070B504464820FFF7D5FF002508E000BF70
:102400004FF0E020006900F480300028F8D06D1C07
:10241000A542F4D34FF0E020006920F001004FF016
:10242000E021086170BD70B504460E48FFF7BAFFA1
:10243000002508E000BF4FF0E020006900F4803084
:102440000028F8D06D1CA542F4D34FF0E0200069BD
:1024500020F001004FF0E021086170BD18ED00E0B0
:1024600000E400E04019010070B504460E462EB1AC
:102470004FF40041F948FEF7E2F804E04FF4004160
:10248000F648FEF7DEF84FF48071F548FEF7D9F80C
:1024900000251BE04FF48051F048FEF7D2F804F01D
:1024A000800028B14FF40051EC48FEF7C8F804E072
:1024B0004FF40051E948FEF7C4F84FF48051E74863
:1024C000FEF7BDF86006040E681CC5B2082DE1DBFE
:1024D0004FF48071E248FEF7B2F84FF40041DF4854
:1024E000FEF7ADF870BD10B504461CB90021A6205A
:1024F000FFF7BAFF012C03D10021A720FFF7B4FF9B
:1025000010BD10B504463CB90021C820FFF7ACFF50
:102510000021A120FFF7A8FF012C07D10021C02036
:10252000FFF7A2FF0021A020FFF79EFF10BD10B50E
:1025300000218D20FFF798FF00211420FFF794FF62
:102540000021AF20FFF790FF10BD10B500218D20B6
:10255000FFF78AFF00211020FFF786FF0021AF2040
:10256000FFF782FF10BD70B500241CE004F1B0013C
:10257000C8B20021FFF778FF00210846FFF774FF7B
:1025800000211020FFF770FF002508E0B54901EB9E
:10259000C501085D0121FFF767FF681CC5B2802DEA
:1025A000F4DB601CC4B2082CE0DB70BD70B5002405
:1025B0000CE0002506E00020AA4901EBC501085502
:1025C000681CC5B2802DF6DB601CC4B2082CF0DBA1
:1025D000FFF7C9FF70BD70B50A46CE1701EB5676FE
:1025E000C6F3C703CE1701EB5676F610A1EBC6066D
:1025F000F4B20122A240D5B29A4A02EBC002D25CE8
:102600002A43984E06EBC006F25470BD70B50B46D7
:10261000CE1701EB5676C6F3C702CE1701EB5676FE
:10262000F610A1EBC606F4B20123A340DDB28D4B38
:1026300003EBC0039B5CDB438A4E06EBC006B3543E
:10264000884B03EBC0039B5C2B43864E06EBC00616
:10265000B354844B03EBC0039B5CDB43814E06EB1E
:10266000C006B35470BD2DE9F84F05460E46174617
:102670009846002D0ADB802F08DC002E06DBB8F11F
:10268000400F03DCBD4201DC464501DDBDE8F88FAB
:10269000BD420DD1002406E03019C1B22846FFF733
:1026A0009AFF601CC4B2A8EB0600A042F4DC30E044
:1026B00046450CD1002406E02919C8B23146FFF77F
:1026C0008AFF601CC4B2781BA042F5DC21E0A8EBB5
:1026D000060000F0FF0A781B00F0FF0B0AEB8A00EF
:1026E000400090FBFBF000F0FF0900240EE004FB2B
:1026F00009F00A2190FBF1F03044C0B22919009092
:10270000C8B20099FFF767FF601CC4B2781BA042F3
:10271000EDDC00BFBAE72DE9F04306460F469046D0
:10272000002544463BE03A1BD1B27219D0B2FFF704
:1027300052FF3A1BD1B2721BD0B2FFF74CFF3A19CD
:10274000D1B2721BD0B2FFF746FF3A19D1B272195B
:10275000D0B2FFF740FF7A19D1B23219D0B2FFF7E9
:102760003AFF7A1BD1B23219D0B2FFF734FF7A1B8D
:10277000D1B2321BD0B2FFF72EFF7A19D1B2321B81
:10278000D0B2FFF728FF6D1C05FB05F004FB040029
:1027900008FB1809B9F1000F01DD641E6D1E600011
:1027A000604308FB08F18842BDDABDE8F0832DE9FB
:1027B000FF4F81B080460E461C4600962046E31728
:1027C00004EB5373DB1021464FEAE47C04EB5C7CA2
:1027D0004FEAEC0CA4EBCC0CBCF1000F02D04FF094
:1027E000010C01E04FF0000C6344224604EBD27C64
:1027F0004FEA6C0C03FB0CF303F0FF0B039820383B
:10280000C7B2002554E00C2C07D107EB470016494E
:1028100001EB800010F805A014E0102C05D113483E
:1028200000EB071010F805A00CE0182C07D107EBFF
:10283000C7000F4901EB800010F805A002E005B0C9
:10284000BDE8F08F4FF000092CE00AF0800088B15D
:1028500031464046FFF7BFFE10E00000000C01408B
:10286000000801406C1D0020A2360008163B00083D
:102870000641000831464046FFF7C8FE4FEA4A606D
:102880004FEA106A701CC6B20098301AA04205D1F7
:10289000009E08F1010000F0FF0806E009F10100C8
:1028A00000F0FF09B9F1080FCFDB00BF681CC5B20B
:1028B0005D45A8DB00BFC2E7F0B506460F461446EB
:1028C0001D4613E022782B4639463046FFF76FFF4E
:1028D000284605EBD07106EB6101CEB2C5F1800050
:1028E000B04202DA0026B81CC7B2641C2078202847
:1028F00002DB20787E28E5DDF0BD10B50246012020
:1029000000E050430B00A1F10104E1B2F9D110BD88
:102910002DE9F04F06468A4691461F46099C002540
:102920002CE0781B401EC1B20A20FFF7E6FFB9FB7E
:10293000F0F00A21B0FBF1F201FB1208B8F1000F30
:102940000CD1A34604EBDB71491001FB0561C8B251
:10295000234630225146FFF72AFF0DE0A34604EB41
:10296000DB71491001FB0561C8B208F13001CAB240
:1029700023465146FFF71BFF681CC5B2BD42D0DBA2
:10298000BDE8F08F2DE9FF4F0746884691461C466B
:102990004FF0000B0297CDF804802046E11704EBBE
:1029A0005171C1F3C701009160E009FB04F0C11748
:1029B00000EB51710BEBE101CEB20BF1010000F025
:1029C000FF0B002550E0102C05D1CF4800EB06107E
:1029D000405D03901BE0182C07D106EBC600CB49E5
:1029E00001EBC000405D039011E0202C05D1C848E8
:1029F00000EBC610405D039009E0402C05D1C548AE
:102A000000EB4620405D039001E0BDE8FF8F4FF0F2
:102A1000000A17E0039800F0010020B14146384653
:102A2000FFF7D9FD03E041463846FFF7EFFD039875
:102A30004010039008F1010000F0FF080AF10100C6
:102A400000F0FF0ABAF1080FE4DB781CC7B2029865
:102A5000381AA04204D1029F01980830C0B20190F8
:102A6000DDF80480681CC5B2A542ACDB0098411EAD
:102A7000C9B20091002898D100BFC6E780468946B8
:102A80000026002749E03FB9102332461821802054
:102A9000FFF778FF701CC6B2464522D14FF0000AFE
:102AA0001AE0002410E000250AE09B4800EBC40077
:102AB000415D601E984A02EBC0004155681CC5B2DA
:102AC000082DF2DB601CC4B2902CECDBFFF74BFD51
:102AD0000AF1010000F0FF0A4FEA09105045E0DC5E
:102AE0000026781CC7B2102F00D10027002410E068
:102AF00000250AE0884800EBC400415D601E864A5C
:102B000002EBC0004155681CC5B2082DF2DB601C09
:102B1000C4B2902CECDBFFF726FDB4E770B5044699
:102B20000D4605F1B001C8B20021FFF79DFC102150
:102B300041EA14100021FFF797FC04F00F00002178
:102B4000FFF792FC70BD2DE9F05F05460E46174673
:102B50009846DDF828B04FF00009CA460024E11776
:102B600004EB5171C910A4EBC10101B901E0601C73
:102B7000C4B2344614E021462846FFF7CFFFAA46E8
:102B80000AE01BF809000121FFF76EFC09F10109B9
:102B90000AF1010000F0FF0ABA45F2DB601CC4B282
:102BA0004445E8DBBDE8F09F08B501210820FDF7AA
:102BB00055FF4FF47040ADF8000010208DF8030071
:102BC00003208DF8020069465448FDF78BFC012173
:102BD0000420FDF743FF4FF48070ADF80000102093
:102BE0008DF8030003208DF8020069464C48FDF77C
:102BF00079FC4FF470414948FDF721FD4FF4807195
:102C00004748FDF71CFD4FF480414448FDF719FD8E
:102C1000C820FFF708FC4FF480414048FDF70FFD46
:102C20000021AE20FFF720FC00210846FFF71CFC26
:102C300000211020FFF718FC00214020FFF714FCB2
:102C400000218120FFF710FC0021CF20FFF70CFCB2
:102C50000021A120FFF708FC0021C820FFF704FC99
:102C60000021A620FFF700FC0021A820FFF7FCFBB5
:102C700000213F20FFF7F8FB0021D320FFF7F4FBF2
:102C800000210846FFF7F0FB0021D520FFF7ECFB01
:102C900000218020FFF7E8FB0021D920FFF7E4FBAB
:102CA0000021F120FFF7E0FB0021DA20FFF7DCFB39
:102CB00000211220FFF7D8FB0021DB20FFF7D4FB17
:102CC00000214020FFF7D0FB00212020FFF7CCFBA4
:102CD00000210220FFF7C8FB00218D20FFF7C4FB75
:102CE00000211420FFF7C0FB0021A420FFF7BCFB4C
:102CF0000021A620FFF7B8FB0021AF20FFF7B4FBAF
:102D0000FFF754FC08BD00002900002089020020C4
:102D100061030020610500206C1D0020000C0140B3
:102D200000080140D2B201E000F8012B491EFBD29D
:102D300070470022F6E710B513460A4604461946C6
:102D4000FFF7F0FF204610BD30B505462A460B467A
:102D500012F8010B13F8014B08B1A042F8D01CB1D6
:102D6000002802D06D1CF1E7284630BD10B50022C6
:102D700000E0521C835C8C5CA34201D1002BF8D193
:102D8000D8B2E1B2401A10BD0FB400B58DB010A991
:102D900009900B9000914FF0FF300A9000200C90AA
:102DA00005480690054807906A4609A80F9900F063
:102DB00047F90DB05DF814FB5D3000087B3000086A
:102DC0002DE9FF5F1D464FF0FF3BD5E901469146D7
:102DD0005F464FF00008A9697F1C01988847296A5F
:102DE000824688470028F6D1BAF1FF3F0CD024F480
:102DF000C064002E19DD600614D5BAF12B0F09D07E
:102E0000BAF12D0F0ED103E0584604B0BDE8F09F93
:102E100044F48064A9697F1C01988847761E824625
:102E2000002E02DDBAF1300F03D0B9F1000F26D029
:102E300032E0A969761E44F400747F1C019888472B
:102E40008246002E05DDBAF1780F06D0BAF1580F90
:102E500003D0B9F1000F10D01EE0B9F1000F02D07D
:102E6000B9F1100F18D1A969761E24F400747F1CE3
:102E7000019888478246102002E0082000E00A20DE
:102E8000814609E008FB0908A969761E44F400742C
:102E90007F1C019888478246002E05DD4946504632
:102EA00000F0BAF80028EDDAE96901988847A00532
:102EB00002D46FF00100A8E7E00725D1600613D522
:102EC000600502D5C8F1000000E0404629680A1DEF
:102ED0002A600968220501D5087015E0220701D58E
:102EE000088011E008600FE02868011D2960006873
:102EF000210502D580F8008006E0210702D5A0F860
:102F0000008001E0C0F8008038467EE72DE9FF5FD1
:102F1000D2E901A74FF00008916999461446DDF8FF
:102F200038B0464601988847054659EA0B0005D057
:102F300009E0A169761C019888470546216A284660
:102F400088470028F5D1681C03D05FEACA7005D015
:102F500015E04FF0FF3004B0BDE8F09F2068011D80
:102F60002160D0F800800AE05FEACA7001D108F859
:102F7000015BA169761C7F1E019888470546002FDA
:102F80001ADD681C18D0B9F1000F0DD0E81705EB59
:102F9000D060421120F01F0059F822102A1A012097
:102FA00090400142E0D107E0BBF1000FDCD1216A83
:102FB000284688470028D7D0E16901988847BBF1A7
:102FC000000F07D1002E05DD5FEACA7002D1002193
:102FD00088F80010A068B84203DDBBF1000F03D0F1
:102FE00017B16FF00100B6E73046B4E730B50B46D5
:102FF000014600202022012409E021FA02F59D4229
:1030000005D303FA02F5491B04FA02F52844151EFC
:10301000A2F10102F1DC30BD3A2800D2303820F0B4
:103020002002412A01D3A2F13700884201D34FF098
:10303000FF307047026811441378016018467047EA
:10304000D1600449516104491162002111611146A6
:1030500000F03CB835300008C1300008426842B189
:10306000016811F8013B23B1521EC0E90012184655
:1030700070470121C160881E704742685AB1C36819
:10308000016843B983688B4205D0491E521CC0E9D0
:103090000012002070474FF0FF307047064C074D7C
:1030A00006E0E06840F0010394E807009847103418
:1030B000AC42F6D3FDF740F8184F0008384F00082F
:1030C000C0B24FF4F05100F097B900002DE9F34F72
:1030D0008BB04FF0000801F10C000C464FF0010BD3
:1030E00046460DF1080A0190626901210198904756
:1030F00005002DD0252D2CD0216A8847C0B16269EA
:10310000012101989047216A88470028F7D1411E84
:1031100062690198904700E0761CA1690B98884786
:10312000216A88470028F7D1E1690B988847DBE7D7
:10313000A1690B9888470746A84201D1761CD3E7BE
:10314000E1690B9888477F1C02D1B8F1000F6FD05E
:1031500046E1002762693D463946019890472A2892
:1031600004D162690121019890470125DFF884921A
:103170006269012101989047A0F130010A290AD221
:103180004F45E5DC07EB870100EB4107303FDFD41B
:1031900045F01005ECE7E90601D46FF000476C2814
:1031A0000AD04C2814D0682815D06A280DD074286D
:1031B0001CD07A281AD01DE062690121019890473D
:1031C0006C2802D045F0040514E045F002050DE03E
:1031D00045F020050AE062690121019890476828BE
:1031E00002D045F0080505E045F40065626901215B
:1031F00001989047C4E9015765283DD019DC58284B
:103200007AD00CDC452837D004DC252826D041288C
:1032100031D131E046282FD047282CD12CE05B2833
:1032200077D0612828D063287CD0642823D15AE045
:10323000D0E06F2848D008DC66281DD067281BD056
:10324000692821D06E2816D127E0702845D0732830
:1032500068D0752847D078280DD14DE0A1690B982A
:103260008847054625283FF469AFE1690B988847F0
:103270006D1C3FF46AAFB3E023466A466FF001006D
:103280000B99AFF300809EE045F040006060A80716
:1032900023464FF0000236D43EE0E8077FF447AF04
:1032A0002068011D21600068290501D506701BE713
:1032B000290701D5068017E7A90703D5F117C0E94B
:1032C000006111E706600FE745F040006060A80765
:1032D00023464FF0080216D41EE040F60E0125EA00
:1032E0000100606016E045F040006060A8072346DA
:1032F0004FF00A0207D40FE045F040006060A807D5
:1033000008D5234610226FF001000B99AFF300801F
:1033100059E007E0234610226FF001000B99FFF7F8
:103320004FFD50E04FF000094F464B46632802D056
:103330005B2806D040E0E80601D40120A060012708
:103340003AE062690121019890475E2805D14FF06B
:1033500001096269494601989047216939B90021FC
:103360000A46534643F82120491C0829FADBB0B32A
:10337000216969B9C11700EBD16253110AEB8301CE
:1033800022F01F02821A01200B68904003430B6059
:1033900062690121019890475D28E8D1B9F1000FD9
:1033A00009D00020514651F82020D24341F8202076
:1033B000401C0828F7DB02AB224600976FF00100A3
:1033C0000B99FFF7A3FD00280CDA401C08D1BBF1D4
:1033D000000F05D04FF0FF300DB0BDE8F08FFFE7D4
:1033E0004046F9E7E90701D108F1010806444FF02A
:1033F000000B79E6CCCCCC0C7F2801D9002208E068
:10340000064A02EB5002C007127800D1120902F0FE
:103410000F0201209040084070470000624E0008F3
:1034200070B58C1810F8015B15F0070301D110F886
:10343000013B2A1106D110F8012B03E010F8016BB3
:1034400001F8016B5B1EF9D12B0705D40023521E36
:103450000DD401F8013BFAE710F8013BCB1A921C9E
:1034600003E013F8015B01F8015B521EF9D5A1429C
:10347000D8D3002070BD00000FB4054B10B503A9D0
:10348000044A029800F02CF810BC5DF814FB000010
:103490002B140008641500200FB4084B10B504A9C4
:1034A00002AA039800F01CF8044602A9002000F0CC
:1034B000F3F8204610BC5DF814FB000099360008B4
:1034C00002E008C8121F08C1002AFAD170477047ED
:1034D000002001E001C1121F002AFBD1704700004B
:1034E0002DE9FF4F8BB09A460F460546002606E0B1
:1034F00025280BD052460D9990476D1C761C2878D4
:103500000028F5D10FB03046BDE8F08F0024A0466A
:103510000122604900E0044315F8013F203B02FA14
:1035200003F00842F7D128782E2817D115F8010F9B
:1035300044F004042A280ED06FF02F022878A0F15E
:10354000300109290AD808EB880102EB410100EBA0
:1035500001086D1CF2E757F8048B6D1C2878692868
:103560003ED006DC0028CDD063280BD0642804D1DF
:1035700036E0732810D075284BD052460D999047ED
:10358000761C85E017F8040B8DF8000000208DF8FC
:103590000100E946012003E057F8049B4FF0FF309B
:1035A00061074FF0000401D40AE0641C44450DDAC1
:1035B0008442FADB19F804100029F6D106E0641CF5
:1035C0008442FCDB19F804100029F8D1264404E0F9
:1035D00019F8010B52460D999047641EF8D257E036
:1035E00001CF4FF00A0B002802DA40422D2102E001
:1035F000210504D52B218DF82410012103E0E107DA
:1036000005D02021F7E70DF1200908910CE00021F9
:10361000F9E701CF4FF00A0BF9E75946FFF7E6FC4F
:1036200001F1300209F8012D0028F6D1ADEB0900B7
:1036300000F1200B600701D44FF00108D84502DDEE
:10364000A8EB0B0000E000208046002406E009A85B
:103650005246005D0D999047641C761C0898844280
:10366000F5DB04E0302052460D999047761CB8F106
:103670000001A8F10108F5DC05E019F8010B52463C
:103680000D999047761CBBF10001ABF1010BF4DC06
:103690006D1C34E7092801000A68531C0B60107088
:1036A0007047000000000000000000000000000063
:1036B00000003F400000000000000000300040001B
:1036C00030004000000009000BC03D000BC03D0071
:1036D000090018C024407FE022403180000018001B
:1036E00024C01B000D803240018003801C40274015
:1036F0001C80074000401000600000000000000037
:1037000000000000000000001F802040402000005A
:10371000402020401F8000000000090006001F809C
:10372000060009000000040004003F8004000400BB
:103730000000001000600000000000000000040015
:103740000400040004000400000000000040000029
:10375000000000000000002001C00600380040000A
:1037600000001F802040204020401F8000000000FB
:1037700010403FC000400000000018C0214022401F
:1037800024401840000010802040244024401B802A
:10379000000002000D0011003FC0014000003C800D
:1037A000244024402440238000001F8024402440E3
:1037B0003440038000003000200027C03800200083
:1037C00000001B802440244024401B8000001C007B
:1037D00022C0224022401F8000000000000008405C
:1037E0000000000000000000000004600000000075
:1037F0000000000004000A00110020804040090081
:103800000900090009000900000000004040208074
:1038100011000A00040018002000234024001800B2
:1038200000001F802040274029401F40000000402A
:1038300007C039000F0001C0004020403FC02440B5
:1038400024401B8000001F8020402040204030800A
:10385000000020403FC0204020401F80000020404A
:103860003FC024402E4030C0000020403FC02440D4
:103870002E00300000000F001080204022403380D6
:10388000020020403FC0040004003FC02040204010
:1038900020403FC020402040000000602020202029
:1038A0003FC02000200020403FC024400B0030C01B
:1038B000204020403FC020400040004000C03FC0AA
:1038C0003C0003C03C003FC0000020403FC00C4013
:1038D00023003FC020001F802040204020401F8048
:1038E000000020403FC024402400180000001F803A
:1038F0002140214020E01FA0000020403FC0244084
:10390000260019C0004018C02440244022403180C5
:103910000000300020403FC0204030000000200068
:103920003F80004000403F80200020003E0001C05A
:10393000070038002000380007C03C0007C03800EE
:103940000000204039C0060039C02040000020009F
:10395000384007C0384020000000304021C02640D9
:10396000384020C00000000000007FE040204020E0
:103970000000000070000C00038000400000000008
:10398000402040207FE000000000000020004000B8
:1039900020000000000000100010001000100010B7
:1039A00000100000000040000000000000000000C7
:1039B00002800540054003C0004020003FC0044095
:1039C00004400380000000000380044004400640DF
:1039D000000000000380044024403FC0004000007D
:1039E00003800540054003400000000004401FC064
:1039F000244024402000000002E0055005500650FD
:103A0000042020403FC00440040003C000400000E8
:103A1000044027C000400000000000100010041007
:103A200027E00000000020403FC00140070004C024
:103A30000440204020403FC000400040000007C03C
:103A4000040007C0040003C00000044007C0044095
:103A5000040003C0004000000380044004400380D1
:103A60000000041007F00450044003800000000030
:103A700003800440045007F00010044007C00240D7
:103A8000040004000000000006400540054004C09A
:103A90000000000004001F800440004000000400FB
:103AA00007800040044007C000400400070004C035
:103AB000018006000400060001C0070001C00600E6
:103AC0000000044006C0010006C0044000000410CD
:103AD000071004E00180060004000000044005C057
:103AE0000640044000000000000004007BE040208D
:103AF0000000000000000000FFF0000000000000D7
:103B000040207BE0040000000000400080004000F6
:103B10002000200040000000000000000000000025
:103B20000000000000000000000000001FCC000C9E
:103B300000000000000000000800300060000800E5
:103B4000300060000000022003FC1E20022003FC65
:103B50001E200220000000000E1811043FFF1084F8
:103B60000C78000000000F0010840F3800C00778A8
:103B700018840078000000780F8410C411240E9877
:103B800000E40084000808006800700000000000E5
:103B900000000000000000000000000007E018180E
:103BA000200440020000000040022004181807E032
:103BB0000000000000000240024001800FF0018080
:103BC0000240024000000080008000800FF800806A
:103BD0000080008000000001000D000E00000000C9
:103BE00000000000000000000080008000800080D5
:103BF0000080008000800000000C000C000000002D
:103C000000000000000000000006001800600180B5
:103C1000060018002000000007F008081004100437
:103C2000080807F000000000080408041FFC000456
:103C300000040000000000000E0C101410241044BA
:103C400011840E0C000000000C1810041104110463
:103C500012880C700000000000E0032004240824F7
:103C60001FFC0024000000001F98108411041104A0
:103C7000108810700000000007F00888110411047B
:103C800018880070000000001C00100010FC1300D9
:103C90001C001000000000000E3811441084108435
:103CA00011440E38000000000700088C1044104436
:103CB000088807F00000000000000000030C030C5F
:103CC00000000000000000000000000101060000EC
:103CD00000000000000000000080014002200410ED
:103CE0000808100400000220022002200220022006
:103CF0000220022000000000100408080410022026
:103D000001400080000000000E001200100C106C3A
:103D100010800F00000003E00C1813E4142417C4F3
:103D2000082807D000000004003C03C41C400740E2
:103D300000E4001C000410041FFC11041104110411
:103D40000E880070000003E00C181004100410042A
:103D500010081C10000010041FFC100410041004B4
:103D6000080807F0000010041FFC1104110417C418
:103D700010040818000010041FFC1104110017C0E3
:103D800010000800000003E00C1810041004104498
:103D90001C780040000010041FFC1084008000808C
:103DA00010841FFC10040000100410041FFC1004F9
:103DB00010040000000000030001100110011FFEAC
:103DC00010001000000010041FFC11040380146494
:103DD000181C1004000010041FFC10040004000450
:103DE0000004000C000010041FFC1F0000FC1F005A
:103DF0001FFC1004000010041FFC0C04030000E072
:103E000010181FFC100007F008081004100410041C
:103E1000080807F0000010041FFC108410801080B8
:103E200010800F00000007F0081810241024101C48
:103E3000080A07F2000010041FFC1104110011C051
:103E400011300E0C000400000E1C110410841084AC
:103E500010441C3800001800100010041FFC10044F
:103E600010001800000010001FF8100400040004E7
:103E700010041FF8100010001E0011E0001C00705C
:103E800013801C0010001FC0103C00E01F0000E069
:103E9000103C1FC000001004180C163401C001C0F3
:103EA0001634180C100410001C00130400FC13043A
:103EB0001C00100000000804101C1064108413047F
:103EC0001C04101800000000000000007FFE4002EB
:103ED000400240020000000030000C00038000603F
:103EE000001C0003000000004002400240027FFE70
:103EF0000000000000000000000020004000400022
:103F0000400020000000000100010001000100014C
:103F100000010001000100004000400020000000FE
:103F2000000000000000000000980124014401444A
:103F3000014400FC000410001FFC0088010401047F
:103F40000088007000000000007000880104010477
:103F500001040088000000000070008801040104D2
:103F600011081FFC0004000000F801440144014452
:103F7000014400C800000000010401040FFC11040A
:103F8000110411001800000000D60129012901299F
:103F900001C90106000010041FFC0084010001009B
:103FA000010400FC000400000104190419FC0004D1
:103FB00000040000000000000003000101011901DD
:103FC00019FE0000000010041FFC0024004001B492
:103FD000010C010400000000100410041FFC000488
:103FE000000400000000010401FC0104010001FCC8
:103FF0000104010000FC010401FC00840100010037
:10400000010400FC0004000000F8010401040104A4
:10401000010400F80000010101FF00850104010412
:104020000088007000000000007000880104010496
:10403000010501FF00010104010401FC00840104E9
:10404000010001800000000000CC012401240124B3
:1040500001240198000000000100010007F801049C
:10406000010400000000010001F800040004000445
:10407000010801FC0004010001800170000C001027
:1040800001600180010001F0010C003001C000302E
:10409000010C01F0010000000104018C00740170AA
:1040A000018C01040000010101810171000E001862
:1040B00001600180010000000184010C0134014411
:1040C0000184010C0000000000000000000001005D
:1040D0003EFC400240020000000000000000FFFF24
:1040E0000000000000000000400240023EFC010011
:1040F0000000000000000000600080008000400020
:10410000400020002000000000000000000000002F
:10411000000000000000000000000000000000009F
:10412000000000000000000000000000000000008F
:104130000000000000000000000F80380FFE380F64
:1041400080380000000000000000000000000000B7
:10415000000000000100000600000C000038000014
:104160003100000600000C000038000030000000A4
:1041700000000000000061800067F807F98000611E
:10418000800061800061800061800067F807F9802D
:1041900000618000000000000000000001C0E0039A
:1041A000E0F00630080418081FFFFE040E08078719
:1041B000F00381E000000000000001F000060C00A8
:1041C000040408060C7001F9C0000E00003BE0007A
:1041D000EC18070808040C180003E00000000001B8
:1041E000E00007F003F818041C0804170807E1D0E2
:1041F00003C0E00023B0003C0800200800001000CD
:1042000000000000000100003100003200001C002E
:10421000000000000000000000000000000000009E
:10422000000000000000000000000000000000008E
:104230000000000000007F0001FFC00780F00C00BC
:1042400018100004200002000000000000200002FE
:104250001000040C00180780F001FFC0007F000070
:10426000000000000000000000000000000000004E
:1042700000004200006600006600003C00001800DC
:1042800003FFC0001800003C00006600006600004C
:1042900042000000000008000008000008000008BC
:1042A0000000080001FFC00008000008000008002E
:1042B00000080000080000000000000100003100BC
:1042C000003200001C0000000000000000000000A0
:1042D00000000000000000000000000000000800D6
:1042E00000080000080000080000080000080000A6
:1042F000080000080000080000080000000000009E
:104300000000000000003800003800003800000005
:10431000000000000000000000000000000000009D
:10432000000000000000000600001C0000700001FA
:1043300080000E0000380000C0000700001C0000D4
:10434000300000000000000000007F8001FFE0035B
:104350008070060018040008040008060018038096
:104360007001FFE0007F80000000000000000000FE
:1043700001000801000801000803FFF807FFF8002A
:104380000008000008000008000000000000000015
:104390000001C03802C05804009804011804021833
:1043A000040418061C1803F81801E0F800000000C7
:1043B000000000000001C0E003C0F0040008040891
:1043C0000804080806180803F41801E7F00001E0E3
:1043D000000000000000000000000300000D0000CD
:1043E000110000610000810803010807FFF80FFFBA
:1043F000F80001080001080000000000000000E0D3
:1044000007FCD00608080610080610080610080663
:104410001838060FF00607C000000000000000007A
:1044200000003F8001FFE0038430020818041008F8
:10443000041008041008071810030FF00007C0004C
:10444000000000000000000003C00007000006009C
:10445000000600F80607F806180006E0000700004E
:1044600006000000000000000001E1E003F7F00694
:104470003410041808041808040C08040C08061664
:104480001803F3F001C1E000000000000000F80094
:1044900003FC30030638040208040208040208047E
:1044A00004100308F001FFC0007F000000000000BE
:1044B0000000000000000000000000000000703854
:1044C000007038007038000000000000000000009C
:1044D00000000000000000000000000000000000DC
:1044E0000000301A00301C00000000000000000036
:1044F00000000000000000000000000000080000B4
:1045000014000022000041000080800100400200F1
:104510002004001008000800000000000000210036
:1045200000210000210000210000210000210000E6
:1045300021000021000021000021000000000000F7
:1045400000000000080008040010020020010040E4
:1045500000808000410000220000140000080000DC
:10456000000000000003C00004C0000400000800B8
:1045700038080F380808380810000C300007E00031
:1045800003C000000000000000003F8000FFE003C7
:104590008070020F1006708804C088048308047FAE
:1045A0008802C09003012000FE40000008000018AF
:1045B0000001F8003E0801C20007020007E2000007
:1045C000FE00001FC80001F80000380000080400C9
:1045D0000807FFF807FFF80408080408080408089B
:1045E00004080806180803F41801E7F00001E000C9
:1045F0000000000000003F8001FFE0038070020027
:104600001804000804000804000804001006002034
:104610000780C000000004000807FFF807FFF80447
:1046200000080400080400080400180200100380B9
:104630007001FFE0007F8000000004000807FFF821
:1046400007FFF80408080408080408080408080418
:104650003E08040008060018010060000000040085
:104660000807FFF807FFF80408080408000408001A
:10467000040800043E00060000060000018000005F
:104680000000000000003F8001FFE0038070060092
:10469000180400080402080402080203F00783F06B
:1046A00000020000020004000807FFF807FFF804FA
:1046B00008080008000008000008000008000408BE
:1046C0000807FFF807FFF8040008000000000000DA
:1046D00004000804000804000807FFF807FFF804B6
:1046E00000080400080400080000000000000000AA
:1046F00000000006000007000001040001040001A2
:1047000004000307FFFE07FFFC0400000400000490
:10471000000004000807FFF807FFF8040C08001861
:1047200000003E0004C7800503C80600F8040038F6
:1047300004001800000804000807FFF807FFF80449
:104740000008000008000008000008000008000041
:104750000800001800006000000004000807FFF8CF
:1047600007800807FC00007FC00003F80007C000B6
:10477000780007800807FFF807FFF8040008040026
:104780000807FFF807000803C00000E00000380039
:10479000001E000007000001C00400F007FFF8043D
:1047A0000000000000007F8001FFE0038070060031
:1047B0001804000804000806001803003001FFE098
:1047C000007F8000000004000807FFF807FFF804DE
:1047D0000408040400040400040400040400060C9B
:1047E0000003F80001F000000000000000007F80DE
:1047F00001FFE00380700600880400880400C806FA
:10480000003C03003E01FFE6007F8400000004003E
:104810000807FFF807FFF8040808040800040C0064
:10482000040F00040BC00610F003F03801E008008C
:10483000000800000001E0F803F030063010041812
:1048400008041808040C08040C080206180207F0F3
:104850000781E00000000180000600000400000461
:10486000000004000807FFF807FFF8040008040030
:104870000004000006000001800004000007FFE0C3
:1048800007FFF004001800000800000800000800FE
:10489000000800000804001007FFE0040000040006
:1048A0000006000007E00007FE00041FE00001F81A
:1048B0000000380001E0043E0007C00006000004CC
:1048C000000004000007E00007FFC0041FF8000715
:1048D000C007F80007FF80043FF80007C004F80095
:1048E000070000040000000000040008060018078C
:1048F000C07805F1C8003E00001F800463E807800F
:10490000F80600180400080000000400000600007B
:1049100007800007E008047C08001FF80007F80083
:10492000180804E00807000006000004000000006A
:10493000000100080600380400F80403E8040F082A
:10494000047C0805F00807C0080700180400600090
:104950000000000000000000000000000000000057
:10496000003FFFFE20000220000220000220000283
:104970002000020000000000000000000800000706
:10498000000000C0000038000006000001C0000068
:104990003000000E000001000000000000000000D8
:1049A0002000022000022000022000022000023F1E
:1049B000FFFE0000000000000000000000000000FA
:1049C000000000000000000800001000003000009F
:1049D000200000300000100000080000000000006F
:1049E00000000000010000010000010000010000C3
:1049F00001000001000001000001000001000001B1
:104A00000000010000010000000000000000002084
:104A10000000200000100000100000000000000056
:104A2000000000000000000000000000000000F096
:104A30000019F8001B1800220800260800240800AE
:104A40002410003FF8001FF80000080000180000C4
:104A50000004000007FFF80FFFF00018180010080E
:104A6000002008002008003018001FF0000FC000D0
:104A700000000000000007C0001FF00018300020F8
:104A800008002008002008003C08001C10000060FE
:104A90000000000000000000000007C0001FF00040
:104AA000381800200800200800200804101007FF14
:104AB000F80FFFF0000010000000000000000000F0
:104AC0000007C0001FF0001230002218002208006A
:104AD0002208003208001E10000E20000000000016
:104AE0000000200000200800200801FFF803FFF864
:104AF0000620080420080420080720000300000006
:104B0000000000000000000E000E6E001FF30031D8
:104B1000B10020B10020B1003191001F13002E1E02
:104B200000200E00300000000004000807FFF80F0E
:104B3000FFF8001008002000002000002008003FBF
:104B4000F8001FF80000080000000000000000004E
:104B5000002008002008002008063FF8063FF80063
:104B6000000800000800000800000000000000002D
:104B700000000000000003000003002001002001ED
:104B8000002003063FFE063FFC000000000000007E
:104B9000000000000004000807FFF80FFFF8000104
:104BA00088000300002FC00038F8002038002008DB
:104BB00000000800000000000000000004000804DD
:104BC000000804000807FFF80FFFF80000080000C5
:104BD00008000008000000000000002008003FF866
:104BE000003FF8001008002000003FF8003FF800E8
:104BF0001008002000003FF8003FF8000008000007
:104C000000002008003FF8003FF8001008001000E6
:104C1000002000002008003FF8001FF800000800F6
:104C200000000000000007C0000FF0001830003046
:104C300008002008002008003008001830000FF09D
:104C40000007C0000000000000002001003FFF003E
:104C50003FFF00101100200900200800200800304C
:104C600038001FF0000FC00000000000000007C067
:104C7000001FF0003818002008002008002009005C
:104C80001011001FFF003FFF000001000000002086
:104C900008002008002008003FF8003FF80008083E
:104CA0000010080020080020000030000030000044
:104CB0000000000000000000000C78001E18003307
:104CC000080023080021080021880021980030F006
:104CD00000386000000000000000200000200000FC
:104CE000200000FFF003FFF800200800200800204B
:104CF000080000300000000000000000000020005C
:104D0000003FF0007FF800001800000800000800D5
:104D10002010003FF8007FF00000100000000000AD
:104D200000002000003000003C00003F800023F025
:104D3000000078000070002380003C00003000007C
:104D40002000002000003C00003FE00023F80000AD
:104D5000E0002700003E00003FE00021F80001E0F5
:104D6000003E000020000000000020080020080095
:104D70003838003E680027800003C8002CF800384F
:104D8000380020180020080000000000000020006B
:104D9000003003003C01003F830023EC0000700062
:104DA0002380003C000020000020000000000000E4
:104DB000000000000038080020380020F80023E838
:104DC000002F88003E0800380800201800007000FE
:104DD00000000000000000000000000000000000D3
:104DE000000008000014001FF7FC3000062000023D
:104DF00000000000000000000000000000000000B3
:104E00000000000000000000FFFFFF0000000000A5
:104E10000000000000000000000000000000000092
:104E20002000023000061FF7FC00140000080000FC
:104E30000000000000000000000000000000000072
:104E4000001800006000004000004000002000004A
:104E50001000000800000400000400000C00001016
:104E60000000DDDDDDDDDCBBBBDDDDDDDDDDDDDD71
:104E7000DDDD98888888888888887777777777884D
:104E8000888885555556666666666666666666688F
:104E9000888883333332222222222222222222288D
:104EA000888D0000474554202068747470733A2F31
:104EB0002F6170692E73656E6976657273652E63F6
:104EC0006F6D2F76332F776561746865722F6E6F03
:104ED000772E6A736F6E3F6B65793D532D3559366A
:104EE000705A63735845586A5A465F31266C6F632F
:104EF0006174696F6E3D7A68656E677A686F752652
:104F00006C616E67756167653D656E26756E697467
:104F10003D630D0A00000000384F0008000000202B
:104F20006815000020340008A05100086815002012
:104F300088100000D03400081184A24A04680901D6
:104F4000020304060708090C691035020406080567
:104F50001B30484830180E8060F80710901011166A
:104F60001010D0104121200DFF4040415E404070A4
:104F70004E41404018081715D55557557D0424D586
:104F800015174E4040407F55011A7F0C11100A80C2
:104F900088898EF88C8B888016FE0222DA06180823
:104FA0004020100C0304087226FF0810080712E0C6
:104FB00012FF1320C02AFE0522FF458140300F4218
:104FC0003F1910251060028C2BFE920132FE180A48
:104FD00004047E01407E42427E021B427E801128F4
:104FE00009FC242424FC252624081204181040302F
:104FF0008F80844C55252525554C808080902A42F1
:10500000013AFE0629903A8082111E030C102040BE
:10501000204E20104C475401D4D40404150F3040C6
:10502000F01010504CA535D59545DF4555D5554563
:10503000D40C17424A29A5927C1A57DF1C555557A4
:105040008049D72BFE220129A119D7200B88473090
:105050000F02020242827F091E80314AE0EA1119E2
:1050600010211C080403351A803A3113010E4B023B
:10507000E25A39063BE2022A1309121A7F05592621
:10508000480A101098A44744A4540CBE180C8189F7
:105090008944444A31211109054A59803AC27F297D
:1050A0008011280C207028242320202024283079E7
:1050B0001115FC8484FC1E445454547F0422441D66
:1050C0003F10103F664E1515155595864BFE820113
:1050D00029DE414BFF400129B421100804FF24249C
:1050E00024FF0429A21922480E88482F090919AF64
:1050F00048300F024282404BC080014BFC840803C1
:1051000036C0C05BFF7F786980495F0139034A7F01
:10511000700373FCF86CFFFE02018BFFFF0B02684B
:10512000036C1F1F04017BFFFF0B02741F038C7FA6
:105130003F07FFF8F8F0F0702001E60214801AFF34
:105140000109122C09132D01FF01C0EDFFFFFE061E
:10515000011AFF01F915391603FF070201D10C12DC
:10516000FFFFFF1409101509151601FF01C1EDFF1E
:10517000FFFF18011914091015391601FF01D20497
:10518000120201011AFF01011209122A01FF01D7BF
:105190001AFF0101FF01FD05FF1F1F0F0F01E700AF
:0400000508000131BD
:00000001FF
