:020000040800F2
:1000000000000120E91E0008A50B0008A70B00084E
:10001000A90B0008AB0B0008AD0B000800000000A6
:10002000000000000000000000000000AF0B00080E
:10003000B10B000800000000B30B0008B50B00086E
:10004000311F0008311F0008311F0008311F000850
:10005000311F0008311F0008311F0008311F000840
:10006000311F0008311F0008311F0008311F000830
:10007000311F0008311F0008311F0008311F000820
:10008000311F0008311F0008311F0008311F000810
:10009000311F0008311F0008311F0008311F000800
:1000A000311F0008311F0008311F0008311F0008F0
:1000B000311F0008311F0008311F0008311F0008E0
:1000C000311F0008311F0008311F0008311F0008D0
:1000D000311F000835160008F1190008311F00080B
:1000E000311F0008311F0008311F0008311F0008B0
:1000F000311F0008311F0008311F0008311F0008A0
:10010000311F0008311F0008311F0008311F00088F
:10011000311F0008311F0008311F0008311F00087F
:10012000311F0008311F0008311F0008311F00086F
:1001300000000000000000000000000000000000BF
:1001400000000000000000000000000000000000AF
:10015000000000000000000000000000000000009F
:10016000000000000000000000000000000000008F
:10017000000000000000000000000000000000007F
:10018000000000000000000000000000000000006F
:10019000000000000000000000000000000000005F
:1001A000000000000000000000000000000000004F
:1001B000000000000000000000000000000000003F
:1001C000000000000000000000000000000000002F
:1001D000000000000000000000000000000000001F
:0401E0005FF8E0F1F3
:1001E80010B5054C237833B9044B13B10448AFF369
:1001F80000800123237010BDE401002000000000EE
:10020800E401000808B5034B1BB103490348AFF3E9
:10021800008008BD00000000E8010020E40100089B
:10022800034613F8012B002AFBD1181A013870472E
:1002380081F0004102E000BF83F0004330B54FEA8F
:1002480041044FEA430594EA050F08BF90EA020FFC
:100258001FBF54EA000C55EA020C7FEA645C7FEA8F
:10026800655C00F0E2804FEA5454D4EB5555B8BFB2
:100278006D420CDD2C4480EA020281EA030382EA23
:10028800000083EA010180EA020281EA0303362DB5
:1002980088BF30BD11F0004F4FEA01314FF4801C88
:1002A8004CEA113102D0404261EB410113F0004F9A
:1002B8004FEA03334CEA133302D0524263EB430351
:1002C80094EA050F00F0A780A4F10104D5F1200EEF
:1002D8000DDB02FA0EFC22FA05F2801841F100014A
:1002E80003FA0EF2801843FA05F359410EE0A5F11E
:1002F80020050EF1200E012A03FA0EFC28BF4CF04F
:10030800020C43FA05F3C01851EBE37101F0004504
:1003180007D54FF0000EDCF1000C7EEB00006EEB11
:100328000101B1F5801F1BD3B1F5001F0CD349089B
:100338005FEA30004FEA3C0C04F101044FEA4452F2
:1003480012F5800F80F09A80BCF1004F08BF5FEA79
:10035800500C50F1000041EB045141EA050130BD59
:100368005FEA4C0C404141EB0101013C28BFB1F56B
:10037800801FE9D291F0000F04BF01460020B1FAB6
:1003880081F308BF2033A3F10B03B3F120020CDA89
:100398000C3208DD02F1140CC2F10C0201FA0CF067
:1003A80021FA02F10CE002F11402D8BFC2F1200CCC
:1003B80001FA02F120FA0CFCDCBF41EA0C01904082
:1003C800E41AA2BF01EB0451294330BD6FEA0404CB
:1003D8001F3C1CDA0C340EDC04F11404C4F12002B6
:1003E80020FA04F001FA02F340EA030021FA04F3C8
:1003F80045EA030130BDC4F10C04C4F1200220FA1F
:1004080002F001FA04F340EA0300294630BD21FA5C
:1004180004F0294630BD94F0000F83F4801306BF22
:1004280081F480110134013D4EE77FEA645C18BF16
:100438007FEA655C29D094EA050F08BF90EA020FAD
:1004480005D054EA000C04BF1946104630BD91EAA5
:10045800030F1EBF0021002030BD5FEA545C05D1A8
:100468004000494128BF41F0004130BD14F58004E7
:100478003CBF01F5801130BD01F0004545F0FE415B
:1004880041F470014FF0000030BD7FEA645C1ABF90
:10049800194610467FEA655C1CBF0B46024650EAC7
:1004A800013406BF52EA033591EA030F41F40021F3
:1004B80030BD00BF90F0000F04BF0021704730B579
:1004C8004FF4806404F132044FF000054FF000014E
:1004D80050E700BF90F0000F04BF0021704730B50F
:1004E8004FF4806404F1320410F0004548BF4042E4
:1004F8004FF000013EE700BF42004FEAE2014FEA39
:1005080031014FEA02701FBF12F07F4393F07F4F13
:1005180081F06051704732F07F4208BF704793F016
:100528007F4F04BF41F40021704730B54FF4607429
:1005380001F0004521F000411CE700BF50EA01022C
:1005480008BF704730B54FF000050AE050EA0102D5
:1005580008BF704730B511F0004502D5404261EB45
:1005680041014FF4806404F132045FEA915C3FF486
:10057800D8AE4FF003025FEADC0C18BF03325FEA23
:10058800DC0C18BF033202EBDC02C2F1200300FAD4
:1005980003FC20FA02F001FA03FE40EA0E0021FAF9
:1005A80002F11444BDE600BF70B54FF0FF0C4CF4E7
:1005B800E06C1CEA11541DBF1CEA135594EA0C0F99
:1005C80095EA0C0F00F0DEF82C4481EA030621EAD4
:1005D8004C5123EA4C5350EA013518BF52EA03350F
:1005E80041F4801143F4801338D0A0FB02CE4FF0C1
:1005F8000005E1FB02E506F00042E0FB03E54FF0F1
:100608000006E1FB03569CF0000F18BF4EF0010EE8
:10061800A4F1FF04B6F5007F64F5407404D25FEAE4
:100628004E0E6D4146EB060642EAC62141EA555197
:100638004FEAC52040EA5E504FEACE2EB4F1FD0CD9
:1006480088BFBCF5E06F1ED8BEF1004F08BF5FEA57
:10065800500E50F1000041EB045170BD06F0004609
:1006680046EA010140EA020081EA0301B4EB5C04B6
:10067800C2BFD4EB0C0541EA045170BD41F48011AE
:100688004FF0000E013C00F3AB8014F1360FDEBFD3
:10069800002001F0004170BDC4F10004203C35DAAF
:1006A8000C341BDC04F11404C4F1200500FA05F332
:1006B80020FA04F001FA05F240EA020001F00042D3
:1006C80021F0004110EBD37021FA04F642EB060149
:1006D8005EEA430E08BF20EAD37070BDC4F10C0473
:1006E800C4F1200500FA04F320FA05F001FA04F237
:1006F80040EA020001F0004110EBD37041F1000123
:100708005EEA430E08BF20EAD37070BDC4F120052D
:1007180000FA05F24EEA020E20FA04F301FA05F295
:1007280043EA020321FA04F001F0004121FA04F23D
:1007380020EA020000EBD3705EEA430E08BF20EA0D
:10074800D37070BD94F0000F0FD101F00046400047
:1007580041EB010111F4801F08BF013CF7D041EAC9
:10076800060195F0000F18BF704703F000465200CD
:1007780043EB030313F4801F08BF013DF7D043EA9E
:100788000603704794EA0C0F0CEA135518BF95EA54
:100798000C0F0CD050EA410618BF52EA4306D1D1DB
:1007A80081EA030101F000414FF0000070BD50EAFA
:1007B800410606BF1046194652EA430619D094EA84
:1007C8000C0F02D150EA013613D195EA0C0F05D16E
:1007D80052EA03361CBF104619460AD181EA0301C2
:1007E80001F0004141F0FE4141F470014FF000007A
:1007F80070BD41F0FE4141F4780170BD70B54FF015
:10080800FF0C4CF4E06C1CEA11541DBF1CEA135594
:1008180094EA0C0F95EA0C0F00F0A7F8A4EB050476
:1008280081EA030E52EA03354FEA013100F088806D
:100838004FEA03334FF0805545EA131343EA126336
:100848004FEA022245EA111545EA10654FEA0026EB
:100858000EF000419D4208BF964244F1FD0404F5A4
:10086800407402D25B084FEA3202B61A65EB030500
:100878005B084FEA32024FF480104FF4002CB6EBBD
:10088800020E75EB030E22BFB61A754640EA0C003D
:100898005B084FEA3202B6EB020E75EB030E22BF7D
:1008A800B61A754640EA5C005B084FEA3202B6EBBE
:1008B800020E75EB030E22BFB61A754640EA9C007D
:1008C8005B084FEA3202B6EB020E75EB030E22BF4D
:1008D800B61A754640EADC0055EA060E18D04FEA0B
:1008E800051545EA16754FEA06164FEAC30343EAAB
:1008F80052734FEAC2025FEA1C1CC0D111F4801F78
:100908000BD141EA00014FF000004FF0004CB6E770
:1009180011F4801F04BF01430020B4F1FD0C88BF0F
:10092800BCF5E06F3FF6AFAEB5EB030C04BFB6EB1A
:10093800020C5FEA500C50F1000041EB045170BD0D
:100948000EF0004E4EEA113114EB5C04C2BFD4EB3A
:100958000C0541EA045170BD41F480114FF0000EBE
:10096800013C90E645EA060E8DE60CEA135594EA3A
:100978000C0F08BF95EA0C0F3FF43BAF94EA0C0F3D
:100988000AD150EA01347FF434AF95EA0C0F7FF4B2
:1009980025AF104619462CE795EA0C0F06D152EA06
:1009A80003353FF4FDAE1046194622E750EA4106EA
:1009B80018BF52EA43067FF4C5AE50EA41047FF4FB
:1009C8000DAF52EA43057FF4EBAE12E74FF0FF3C60
:1009D80006E000BF4FF0010C02E000BF4FF0010C31
:1009E8004DF804CD4FEA410C7FEA6C5C4FEA430CAA
:1009F80018BF7FEA6C5C1BD001B050EA410C0CBFF9
:100A080052EA430C91EA030F02BF90EA020F00205A
:100A1800704710F1000F91EA030F58BF994208BFC1
:100A280090422CBFD8176FEAE37040F0010070477E
:100A38004FEA410C7FEA6C5C02D150EA013C07D1D5
:100A48004FEA430C7FEA6C5CD6D152EA033CD3D020
:100A58005DF8040B704700BF8446104662468C461A
:100A68001946634600E000BF01B5FFF7B7FF00284D
:100A780048BF10F1000F01BD4DF808EDFFF7F4FF76
:100A88000CBF012000205DF808FB00BF4DF808ED01
:100A9800FFF7EAFF34BF012000205DF808FB00BF24
:100AA8004DF808EDFFF7E0FF94BF012000205DF846
:100AB80008FB00BF4DF808EDFFF7CEFF94BF0120FB
:100AC80000205DF808FB00BF4DF808EDFFF7C4FFF4
:100AD80034BF012000205DF808FB00BF4FEA410C3D
:100AE8007FEA6C5C02D150EA013C0AD14FEA430C20
:100AF8007FEA6C5C02D152EA033C02D14FF000005D
:100B080070474FF0010070474FEA410212F500129A
:100B180015D211D56FF47873B3EB625212D94FEA3C
:100B2800C12343F0004343EA505311F0004F23FA26
:100B380002F018BF404270474FF00000704750EA7B
:100B4800013005D111F0004008BF6FF00040704738
:100B58004FF00000704700BF08B500F077FC00F0C8
:100B6800A7FC4FF4E13000F0D1FC00F0C5FE00F026
:100B7800CBFE03E04FF4FA7000F0ACFC00F018F87C
:100B88000028F7D104E000F0C3F80A2000F0A2FC26
:100B9800002000F0FDFD0028F5D1F6E77047FEE7DC
:100BA800FEE7FEE7FEE770477047704770470000B2
:100BB8002DE9F0418AB006AD002406940794089404
:100BC8000994374F374EDFF8E080CDF800803B4678
:100BD80032463649364800F007FD059504940394DB
:100BE8000294019400944FF480734246394630468B
:100BF80000F092F9002849D1BDF81C10069800F0C1
:100C080071FDFA2000F0C4FD0446002839D000F038
:100C18004FF9022801D0012434E0204600F0D4FA2C
:100C2800052828D8DFE800F003090F151B21214902
:100C38001F4800F0D9FC002424E01F491C4800F09C
:100C4800D3FC01241EE01D49194800F0CDFC012405
:100C580018E01B49164800F0C7FC012412E01949A6
:100C6800134800F0C1FC01240CE01749104800F0BB
:100C7800BBFC012406E015490D4800F0B5FC012431
:100C880000E0012406A800F0CCF804E01049084868
:100C980000F0AAFC012420460AB0BDE8F08100BF9C
:100CA8003C4E0008444E00087C4E00084C4E00089C
:100CB80000380140884E0008A04E0008C44E0008C5
:100CC800F04E0008184F0008484F0008804F0008F1
:100CD800A44F000810B50A4B1C680A49204601F0C9
:100CE800C1FE18B1084B20225A6110BD07492046A1
:100CF80001F0B8FE0028F8D0034B20221A61F4E76F
:100D080000020020C84F0008000C0140D04F000826
:100D180030B589B0054600230493059306930793DD
:100D28000393ADF80A3000F0C3F80446042831D024
:100D38000F2807D10DF10A031F4A03A9284600F01E
:100D48004FFA48B100F082FCFFF7C4FF0F2C2BD0FC
:100D5800032C29D009B030BD174DBDF80A300093D7
:100D68002B68039A1549164800F03EFC04AA296826
:100D7800039800F01FFB0028E4D11249104800F046
:100D880033FCBDF81410049800F0ACFC04A800F083
:100D980048F8D7E7284600F049FB0028D2D10A498D
:100DA800074800F021FCCDE7039801F0EBF8024B6F
:100DB800186801F0E7F8CDE700020020D84F0008D6
:100DC80000380140FC4F00081450000838B50446AC
:100DD8000D4603681BB102230373002318E00123A7
:100DE8000373084601F0C6F82060C8B100236360A9
:100DF800A56003E022680021D1540133A2689A4219
:100E0800F8D80DE022684FF0000C02F803C0013357
:100E1800A2689A42F6D800236360AA4200D22360EF
:100E280038BD10B50446037B012B05D00023236091
:100E38006360A360237310BD006801F0A3F8F5E7B1
:100E48000346012004280ADC03F07F020A70DB094C
:100E580007D062F07F0201F8012B0130F2E74FF072
:100E6800FF307047002313604FF0010C8B421BDAF0
:100E780010B5C45C04F07F04D2F800E00CFB04E475
:100E88001460C456002C0ADA4FEACC1CBCF5001FCB
:100E980007D201338B42ECDB4FF0FF3003E0581CE4
:100EA80001E06FF0010010BD4FF0FF307047000007
:100EB80030B583B004782409631EDBB20D2B26D825
:100EC8000546032C02D0204603B030BD0023019311
:100ED80001AA04210130FFF7C5FF431CE818019A55
:100EE800012A12D9297811F0010F0ED1E95C437853
:100EF80043EA012302339A4207D30649023001F03C
:100F0800B1FD0028DFD00F24DDE7FF24DBE7FF2455
:100F1800D9E700BF345000082DE9F04F85B00190A3
:100F28000F46164603939DF838509DF83CB0139C25
:100F38001046FFF775F90290002E00F03A810FFA7B
:100F480080FA00F111091FFA89F91DBB4FF000085A
:100F5800109B8BB148F004081846FFF761F9C5B239
:100F68001198FFF75DF90544ADB2A9441FFA89F954
:100F780009F104091FFA89F9BBF1010F0DD0BBF182
:100F8800020F00F0EF80BBF1000F08D0022005B07F
:100F9800BDE8F08F4FF00208DAE748F00C08129B22
:100FA8000BB148F024080198002800F00481002FB4
:100FB80000F0038148F0C00BFFF732F905463846C8
:100FC800FFF72EF90544ADB2A9441FFA89F909F1D2
:100FD80004091FFA89F949462046FFF7F7FE2068F9
:100FE800002800F0EC804A46002100F0E1FF22686A
:100FF8006368591C61601021D154216863681944E1
:10100800A9F10500FFF71CFF00B20028C0F2AD806F
:101018006368184460602368421C626000221A54A6
:10102800216863685A1C62600422CA542168636894
:10103800581C60604D20C85421686368581C606063
:101048005120C85420686368591C61605421C154F8
:10105800206863685D1C6560C15421686368581C1A
:101068006060CA5422686368591C616002F803B062
:1010780022686368591C61600398010AD154226888
:101088006368591C6160D05422686368591C6160A8
:10109800CAF30721D15422686368591C6160029918
:1010A800D1542068636852463146184401F0C7FCA1
:1010B80065685544656018F0040F34D0119B002B07
:1010C80058D01098FFF7ACF886B223686A1C6260A3
:1010D800C0F307225A5522686368591C6160D054CE
:1010E8002068636832461099184401F0A8FC6568C6
:1010F800354465601198FFF793F886B223686A1C37
:101108006260C0F307225A5522686368591C6160FF
:10111800D0542068636832461199184401F08FFC56
:101128006368334463601BF0800F26D13846FFF7AD
:1011380077F885B222686368591C6160C0F307219B
:10114800D15422686368591C6160D0542068636870
:101158002A463946184401F072FC63682B446360E0
:10116800002014E748F0140819E72046FFF759FE55
:1011780005200CE7134B1193A3E7019E3046FFF7B8
:101188004FF885B222686368591C6160C0F3072173
:10119800D15422686368591C6160D0542068636820
:1011A8002A463146184401F04AFC63682B446360C0
:1011B800BCE70120EBE60320E9E60320E7E604208C
:1011C800E5E600BF985000084378022B04D18378E5
:1011D800012B03D8C078704701207047FF20704763
:1011E8002DE9F04383B004460F4616461D462F21CD
:1011F800063001F017FC00230193002843D08146F4
:1012080000F1010801AA0421601CFFF72BFE25202C
:1012180000F0B0FE3860002837D02522002100F009
:10122800C7FE40463C6809F12108D0F800C0416873
:101238008268C368C4F800C06160A260E3601030CF
:1012480010344045F1D10368236009F1250901985C
:101258002C3880B22880013000F08CFE306068B1F4
:101268002A880132002100F0A3FE2A884946306806
:1012780000F090FE002003B0BDE8F083386800F06D
:1012880081FE0320F7E70120F5E70220F3E72DE9C7
:10129800F04F85B001929DF83880119F0290002888
:1012A8007ED00E469B46002500E00135745D2CB1CA
:1012B800232C7AD02B2CF8D1022472E00F9B83B90F
:1012C8004FF0300A05EB0B0303F10209B8F1010FE7
:1012D8000AD0B8F1020F59D0B8F1000F08D0032492
:1012E8005FE04FF0310AEDE74AF0020A03F1040922
:1012F80009F10303039319463846FFF767FD386879
:10130800002854D0039A002100F052FE3A687B6806
:10131800591C796002F803A039687B68194448466B
:10132800FFF78EFD002836DB7B6803447B603A6854
:10133800591C7960C5F30721D1543A687B68591C58
:101348007960D55438687B682A463146184401F0DC
:1013580076FB7B681D447D60B8F1000F0AD03B68BE
:101368006A1C7A600298020A5A553A687B68591CC6
:101378007960D0540199A1B138687B685A461844FD
:1013880001F05DFB7B685B447B600AE04AF0040A7D
:1013980003F10409ACE73846FFF743FD052400E0F4
:1013A8000124204605B0BDE8F08F0224F9E70424A3
:1013B800F7E700002DE9F04385B080460E46174652
:1013C800FEF72EFF85B205F10609484600F0D2FD6A
:1013D80040B304464A46002100F0EAFD124B186863
:1013E80020609B88A3802A464146204601F027FBBF
:1013F8003046FEF715FF03460397012202920022AA
:1014080001920092324621460A20FFF740FF38B980
:101418000025204600F0B6FD284605B0BDE8F0835B
:101428000125F6E70125F7E73C5000084378022B31
:1014380006D1837833B9C3780A2B05D001207047C9
:10144800012070470120704700207047F0B583B035
:101458000121082000F068FC2027ADF80470102353
:101468008DF8073003238DF80630104C01A920466B
:1014780000F09CFB0126ADF8046001A9204600F0AD
:1014880095FB0225ADF8045001A9204600F08EFB1B
:101498003946204600F0E3FB3146204600F0DFFBEA
:1014A8002946204600F0DBFB03B0F0BD000C0140EC
:1014B8004FF0E022136923F004031361034B092260
:1014C8001A70034B42F228321A8070470602002035
:1014D80004020020B0B10C4A128800FB02F24FF05F
:1014E800E0235A6100229A6101221A614FF0E02339
:1014F8001B6903F00113012BF8D04FF0E023002201
:101508001A619A61704700BF0402002070B586B066
:1015180004460121042000F007FC01214FF480401B
:1015280000F002FC18238DF817304FF40073ADF863
:10153800143003268DF816601F4D05A9284600F0C3
:1015480035FB04238DF817304FF48063ADF8143061
:101558008DF8166005A9284600F028FB01940024A0
:10156800ADF810400C23ADF80E30ADF80C40ADF8D6
:101578000A40ADF8084005F5405501A9284600F095
:10158800EFFB0121284600F04DFC012240F22551D5
:10159800284600F055FC25238DF8003001238DF8EE
:1015A80003308DF8014002238DF80230684600F0C0
:1015B800CBFA06B070BD00BF00080140F8B504467C
:1015C8000D46174600260CE015F8011B204600F0D2
:1015D80052FC4021204600F052FC0028F9D0013688
:1015E800B6B2BE42F0D3F8BD0EB430B5CCB00446A6
:1015F8004FAB53F8042B01934FF4947102A801F0F8
:1016080073FA02AD09E00135204600F034FC4021B0
:10161800204600F034FC0028F9D029780029F2D1BE
:101628004CB0BDE8304003B07047000008B540F248
:101638002551054800F02EFC00B908BD20210248BC
:1016480000F024FCF9E700BF0038014008B580220B
:101658000021034800F0ACFC024B00221A8008BDB0
:101668000802002088020020084B1B885BB1084A4A
:101678001288934203D0064A138001207047002045
:10168800024B188070470120704700BF8802002075
:101698008A02002070B504460E46FEF7C1FD82B2EC
:1016A80021460E48FFF78AFFC82203E00A20FFF709
:1016B80011FF2246531EDCB272B1FFF7D5FF054673
:1016C8000028F3D13146064801F0CCF90028EDD0C6
:1016D800FFF7BCFF284670BD0125FBE7004400402A
:1016E8000802002030B589B005460C46FFF7AEFF6A
:1016F80022460849684601F075F907496846FFF728
:10170800C9FF08B109B030BD224629460348FFF792
:1017180055FFF7E7445000085450000800440040C3
:1017280030B5BBB004460D4600212191602222A8A5
:1017380000F03EFC00952346074A084921A801F01D
:1017480051F921AA064903A801F04CF9054903A853
:10175800FFF7A0FF3BB030BD585000085C500008B0
:101768006C5000087C50000800B59FB002460B463C
:101778000549684601F036F904496846FFF78AFFCB
:101788001FB05DF804FB00BF845000089C5000089F
:1017980010B5044606E00520FFF79CFE631E9BB2C9
:1017A80084B11C46FFF760FF0028F4D106490748BA
:1017B80001F058F90028EED03A2101F033F910B1C0
:1017C800013000E0002010BDA050000808020020F1
:1017D80010B50D4C01222021204600F042FA0022CB
:1017E8001021204600F03DFAFA20FFF773FE01228F
:1017F8001021204600F035FA4FF4FA70FFF76AFE20
:10180800FFF724FF10BD00BF0008014070B582B08B
:101818000121042000F088FA10248DF80740ADF863
:10182800044003268DF80660084D01A9284600F0FB
:10183800BDF98DF807402023ADF804308DF8066017
:1018480001A9284600F0B2F902B070BD00080140B5
:1018580030B587B00121042000F066FA01214FF469
:10186800003000F06FFA0425ADF8145018238DF8F5
:10187800173003238DF816301D4C05A9204600F0BB
:1018880095F90823ADF814308DF8175005A92046AE
:1018980000F08CF94FF4E13301930024ADF80840CF
:1018A800ADF80A40ADF80C40ADF810400C23ADF887
:1018B8000E30104D01A9284600F052FA01212846A1
:1018C80000F0B0FA012240F22551284600F0B8FA9B
:1018D80026238DF800308DF801408DF80240012351
:1018E8008DF80330684600F02FF907B030BD00BF0F
:1018F800000801400044004008B5FFF7A9FFFFF7C2
:1019080085FFFFF765FF08BD08B528492848FFF798
:101918006BFE03E04FF4FA70FFF7DCFD254926481B
:10192800FFF7B8FE0028F5D124492148FFF75CFEEF
:1019380003E04FF4FA70FFF7CDFD1E492048FFF78A
:10194800A9FE0028F5D11F491948FFF74DFE03E00D
:101958004FF4FA70FFF7BEFD16491B48FFF79AFED1
:101968000028F5D119491248FFF73EFE03E04FF46D
:10197800FA70FFF7AFFD16491648FFF7F5FE002885
:10198800F5D115490A48FFF72FFE03E04FF4FA7026
:10199800FFF7A0FD11491248FFF7C2FE0028F5D154
:1019A80010490348FFF720FE08BD00BFA8500008F3
:1019B800003801409C500008B0500008B85000089A
:1019C800C4500008D4500008E4500008F45000083F
:1019D800005100080C51000818510008285100084F
:1019E800305100084051000808B540F225510C4814
:1019F80000F050FA98B10B4B1B887F2B02D9094B8A
:101A080000221A8006488188064A138803F1010CCF
:101A1800A2F800C0044AD154202100F037FA08BDCA
:101A280000440040880200200802002082B0002301
:101A3800019300932C4A136843F4803313602A4BB4
:101A48001B6803F400330093019B01330193009B4F
:101A58001BB9019BB3F5A06FF1D1234B1B6813F49D
:101A6800003F06D001230093009B012B04D002B055
:101A7800704700230093F7E71C4B1A6842F01002E6
:101A88001A601A6822F003021A601A6842F0020209
:101A98001A60A3F580535A685A605A685A605A689F
:101AA80042F480625A605A6822F47C125A605A687A
:101AB80042F4E8125A601A6842F080721A600A4BBF
:101AC8001B6813F0007FFAD0074B5A6822F0030214
:101AD8005A605A6842F002025A60034B5B6803F08E
:101AE8000C03082BF9D1C2E7001002400020024085
:101AF80008B5FFF79BFF08BD08B5104B1A6842F000
:101B080001021A6059680E4A0A405A601A6822F09F
:101B1800847222F480321A601A6822F480221A60D1
:101B28005A6822F4FE025A604FF41F029A60FFF7C7
:101B3800DFFF044B4FF000629A6008BD00100240BE
:101B48000000FFF800ED00E0C378FBB1154BDA6840
:101B5800D243C2F30222C2F1040C0F2323FA02F289
:101B6800417801FA0CF1837813400B431B0102788A
:101B7800DBB20D490A4482F80033037803F01F00F2
:101B88005B090122824041F823207047037803F063
:101B98001F015B0901228A402033034941F82320B1
:101BA800704700BF00ED00E000E100E030B5CB7801
:101BB80003F00F02964613F0100F03D091F802E0DD
:101BC8004EEA020E0B7803B30468002301E0426179
:101BD8000133072B18D801229A40B1F800C032EA25
:101BE8000C05F5D14FEA830C0F2505FA0CF524EA0C
:101BF80005040EFA0CFC4CEA0404CD78282DE6D036
:101C0800482DE5D10261E3E704600B88FF2B25D955
:101C18004468002303E0CD78482D1CD00133072BFE
:101C28001BD803F1080C012202FA0CF2B1F800C02B
:101C380032EA0C05F2D14FEA830C0F2505FA0CF5B0
:101C480024EA05040EFA0CFC4CEA0404CD78282D8D
:101C5800E1D14261DFE70261E0E7446030BD016144
:101C680070470AB1016170474161704710B4294B50
:101C78005B6803F00C03042B2BD0082B2CD013B17A
:101C8800254B036001E0244B036022494B68C3F3F2
:101C98000313224CE35CDAB20368D34043604A681A
:101CA800C2F30222A25CD2B223FA02F282604A682C
:101CB800C2F3C222A25CD2B2D340C3604A68C2F364
:101CC800813217498A5CD2B2B3FBF2F3036110BCCC
:101CD8007047114B0360D8E70E4A53685268C3F344
:101CE8008343023312F4803F04D10E4A02FB03F30C
:101CF8000360CAE7074A526812F4003F04D0094A51
:101D080002FB03F30360C0E7034A02FB03F303602B
:101D1800BBE700BF0010024000127A000400002058
:101D28000000002000093D0021B1054A93691843CD
:101D380090617047024A936923EA000090617047F6
:101D48000010024021B1054AD3691843D061704799
:101D5800024AD36923EA0000D061704700100240AC
:101D680030B587B004460D46038A9BB2CA8823F46F
:101D780040531343038283899BB2898828896A89DF
:101D880001430A4323F4B05323F00C031343A38104
:101D9800A38A9BB2AA8923F440731343A38201A8A0
:101DA800FFF764FF1D4B9C4224D0039BA28912F4C9
:101DB800004F21D103EB830303EB83032A689200CE
:101DC800B3FBF2F3164AA2FB031252091101642075
:101DD80002FB1033A28912F4004F16D11B013233D3
:101DE8000F4AA2FB0323C3F343130B439BB2238184
:101DF80007B030BD049BD9E703EB830303EB8303F0
:101E08002A685200B3FBF2F3DCE7DB003233044A02
:101E1800A2FB0323C3F342130B43E7E70038014057
:101E28001F85EB5129B183899BB243F40053838109
:101E3800704783899BB223F400539BB28381704718
:101E4800C1F3421C01F01F01012303FA01F19C4573
:101E580008D0BCF1020F07D014303AB10368194317
:101E6800016070470C30F8E71030F6E7036823EAA2
:101E7800010101607047C1F3080181807047038840
:101E8800194201D00120704700207047C94389B228
:101E980001807047C1F3421201F01F0C012303FABD
:101EA8000CF3012A0FD0022A11D0828A92B2134071
:101EB800090A012202FA01F1028892B20A4053B1DA
:101EC8005AB900207047828992B21340F0E7028A1B
:101ED80092B21340ECE700207047012070470000E1
:101EE800002103E00B4B5B58435004310A480B4B6D
:101EF80042189A42F6D30A4A02E0002342F8043B09
:101F0800084B9A42F9D3FFF7F7FD00F00FF8FEF7F8
:101F180023FE70479455000800000020E4010020CB
:101F2800E4010020A0020020FEE7000070B50026B2
:101F38000C4D0D4C641BA410A64209D103F016FBEE
:101F480000260A4D0A4C641BA410A64205D170BD98
:101F580055F8043B98470136EEE755F8043B984797
:101F68000136F2E78C5500088C5500088C5500089E
:101F780090550008024B0146186800F069B800BF88
:101F880014000020024B0146186800F019B800BF81
:101F9800140000200A44914200F1FF3300D1704739
:101FA80010B511F8014B914203F8014FF9D110BD5A
:101FB80003460244934200D1704703F8011BF9E736
:101FC80038B50546002940D051F8043C0C1F002BB9
:101FD800B8BFE41801F024FC1C4A136833B96360E5
:101FE80014602846BDE8384001F020BCA34208D957
:101FF800206821188B4201BF19685B6809182160A5
:10200800EDE71A465B680BB1A342FAD9116850187C
:10201800A0420BD120680144501883421160E0D1DE
:1020280018685B68014411605360DAE702D90C2331
:102038002B60D6E7206821188B4201BF19685B68BE
:102048000918216063605460CBE738BD8C0200201A
:10205800F8B5CD1C25F0030508350C2D38BF0C2527
:10206800002D064601DBA94203D90C23336000206A
:10207800F8BD01F0D5FB21490A6814469CB9204FE8
:102088003B6823B92146304600F09CFC386029465D
:10209800304600F097FC431C23D10C2330463360B4
:1020A80001F0C4FBE3E723685B1B17D40B2B03D9B0
:1020B80023601C44256004E06368A2420CBF0B60E7
:1020C8005360304601F0B2FB04F10B00231D20F0F1
:1020D8000700C21ACCD01B1AA350C9E7224664686D
:1020E800CCE7C41C24F00304A042E3D0211A3046F4
:1020F80000F068FC0130DDD1CFE700BF8C02002082
:1021080090020020002B2DE9F0471F46BBBF03F1CA
:1021180000431F4600232D2388B01446129A109DB1
:102128001370149BDDF84CA023F02008B8F1460F7B
:1021380005D0B8F1450F00D10135022300E0032393
:1021480007AA049206AACDE902A2CDE900352246E3
:102158003B4600F065FDB8F1470F064602D1119BDA
:10216800DB0722D5B8F1460F06EB050910D1337805
:10217800302B0AD10022002320463946FEF77CFC8A
:1021880018B9C5F10105CAF80050DAF800309944C9
:102198000022002320463946FEF76EFC08B1CDF830
:1021A8001C903022079B4B4507D33046079B159A56
:1021B8009B1B136008B0BDE8F087591C07911A7083
:1021C800F0E70346F7B5002903F8022BB6BF2D2226
:1021D8002B224942092942702BDD0DF10704A44640
:1021E8000A2791FBF7F60A46A64607FB1615632A47
:1021F80005F13005314604F1FF340EF8015CF0DCDE
:102208003031AEF1020504F8011C2946441C614531
:102218000AD30DF10902A2EB0E02654588BF002220
:102228001344181A03B0F0BD11F8012B04F8012F5C
:10223800EDE7302330318370C170031DF1E70000F2
:102248002DE9F04F91B00C46DDF8688016461F4620
:10225800054601F0D3FA036818460993FDF7E0FF35
:1022680000230E93D8F800300A90073323F00703B1
:1022780003F1080294F81890D4F800B0C8F80020C8
:10228800D3E90023C4E91223D4E9128A2AF00043CF
:102298000B934FF0FF3240469C4B0B99FEF71EFC08
:1022A80070BB4FF0FF324046984B0B99FEF7F8FB96
:1022B80030BB0022002340465146FEF7E7FB10B131
:1022C8002D2384F84330924B9248B9F1470F94BFBD
:1022D8009846804603234FF0000A23612BF004033D
:1022E800236033462146284600970FAA00F0D4F908
:1022F800013040F090804FF0FF3011B0BDE8F08F12
:102308004246534640465146FEF7E8FB48B1BAF10B
:10231800000FB8BF2D238048B8BF84F843307F4BE7
:10232800D3E7636809F0DF015A1C42D106236360D2
:10233800002206920EAACDE904920DAA4BF48063FE
:1023480003920DF13302CDE90132236063684246FE
:102358000093284653460B91FFF7D4FE0B9980460D
:1023680047290D9908D1C81C02DB6368994240DDF2
:10237800A9F102095FFA89F9B9F1650F1FD84A4630
:10238800013904F150000D91FFF71BFF0E9A8246A8
:102398001318012A236102DC2268D20701D5013310
:1023A80023619DF83330002B9BD02D2384F84330D4
:1023B80097E74729BCD1002BBAD10123B7E7B9F178
:1023C800660F18D1002963680BDD216113B92268F3
:1023D800D00702D501330B4423614FF0000AA165F1
:1023E800DFE713B92268D20701D50233F4E70123E6
:1023F800F2E74FF067090E9B994205DB23682161DC
:10240800D807EAD54B1CE7E70029CCBF0122C1F168
:1024180002021344E0E723685A0507D423694246B9
:1024280031462846B84701302BD164E7B9F1650F2A
:1024380040F2DD80D4E9120100220023FEF71CFBE4
:10244800002833D0012331462846354AB8470130A1
:102458003FF451AFDDE90D239A4202DB2368D80728
:102468000FD5DDE9092331462846B84701303FF446
:1024780042AF4FF0000804F11A090E9B013B434597
:1024880009DC23689B0700F10281E0680F9B9842F2
:10249800B8BF184631E701234A4631462846B847AF
:1024A80001303FF428AF08F10108E6E70D9B002B47
:1024B80038DC012331462846194AB84701303FF431
:1024C8001AAFDDE90D23134302D12368D907D8D504
:1024D800DDE9092331462846B84701303FF40BAF00
:1024E8004FF0000904F11A0A0D9B5B424B4501DCD1
:1024F8000E9B94E70123524631462846B8470130DF
:102508003FF4F9AE09F10109EEE700BFFFFFEF7FE5
:102518005C510008605100086851000864510008C7
:102528006C5100080E9AA36D9A42A8BF1A46002A59
:10253800914637DC4FF0000B29EAE97904F11A02D9
:10254800D4F858A0AAEB09035B4533DCDDE90D2379
:102558009A423BDB2368DA0738D40E9B0D99A3EB2C
:102568000A02A3EB01099145A8BF9146B9F1000FF2
:1025780034DC4FF0000829EAE97904F11A0ADDE9A8
:102588000D239B1AA3EB090343457FF77AAF012379
:10259800524631462846B84701303FF4ACAE08F100
:1025A8000108ECE71346314642462846B847013051
:1025B800C0D1A0E60123314628460B92B847013026
:1025C8003FF499AE0B9A0BF1010BB9E73146DDE9FF
:1025D80009232846B8470130BFD18CE64B4631461F
:1025E800284608EB0A02B8470130C2D183E60E9AA2
:1025F800012A01DCDB0737D501234246314628464C
:10260800B84701303FF477AEDDE909233146284663
:10261800B84701303FF46FAED4E91201002200231D
:10262800FEF72AFAD8B90E9B08F10102013B3146A0
:102638002846B84701300ED15DE601234A463146A7
:102648002846B84701303FF456AE08F101080E9B02
:10265800013B4345F1DC534604F15002E0E64FF0FC
:10266800000804F11A09F2E701234246DFE70123D3
:102678004A4631462846B84701303FF43CAE08F197
:102688000108E3680F995B1A4345F0DCFDE64FF05B
:10269800000804F11909F4E72DE9F04716469946B0
:1026A8008A680B6907469342B8BF1346336091F8AE
:1026B80043200C46DDF820800AB1013333602368DB
:1026C800990642BF336802333360256815F0060562
:1026D80006D104F1190AE36832689B1AAB4228DC78
:1026E80094F84320131E226818BF012392062DD4A4
:1026F8004946384604F14302C047013020D02368D8
:10270800E56803F00603042B18BF002532684FF074
:102718000006A36808BFAD1A226908BF25EAE57557
:102728009342C4BF9B1AED181A34B5421AD100203F
:1027380008E00123524649463846C047013003D1D4
:102748004FF0FF30BDE8F0870135C4E73020E118CD
:1027580081F843005A1C94F845102244023382F849
:102768004310C5E70123224649463846C047013091
:10277800E6D00136D9E700002DE9FF470F7E9146E4
:10278800782F80460C469A460C9D01F1430207D8E3
:10279800622F0AD8002F00F0D980582F00F0A480AB
:1027A80004F1420584F842703AE0A7F16303152B5F
:1027B800F6D801A151F823F0192800082D2800089F
:1027C800A9270008A9270008A9270008A9270008A1
:1027D8002D280008A9270008A9270008A92700080C
:1027E800A92700083B2900085D2800081D290008C2
:1027F800A9270008A92700085D290008A9270008BB
:102808005D280008A9270008A9270008252900082D
:102818002B681A1D1B682A6004F1420584F84230AF
:102828000123A4E020682968060601F104030AD5FB
:102838000E682B60002E03DA2D23764284F843308D
:102848000A235E4819E00E6810F0400F2B6018BF8D
:1028580036B2EFE72B682068191D2960010601D5FB
:102868001E6802E04606FBD51E886F2F0CBF0823A2
:102878000A235248002184F843106568002DA8BF38
:102888002168A560A4BF21F0040121600EB9002DC4
:102898004DD01546B6FBF3F103FB1167C75D05F88C
:1028A800017D3746BB420E46F4D9082B0BD123686D
:1028B800DE0708D5236961689942DEBF302305F831
:1028C800013C05F1FF35521B22614B46214640462B
:1028D800CDF800A003AAFFF7DFFE01304CD14FF07E
:1028E800FF3004B0BDE8F087344881F845702968A6
:1028F800236851F8046B29601D0614D5DF0744BF0F
:1029080043F0200323601EB9236823F020032360CB
:102918001023AFE7236843F0200323607823284877
:1029280084F84530E3E7590648BFB6B2E6E71546EE
:10293800BBE72B682668181D6169286035061B6887
:1029480001D5196002E07006FBD5198000231546F1
:102958002361BAE72B6800211A1D2A601D68626886
:10296800284600F04FFF08B1401B60606368236190
:10297800002384F84330A8E72A464946404623699D
:10298800D0470130ABD023689B0713D4E068039B82
:102998009842B8BF1846A4E7012332464946404644
:1029A800D04701309BD00135E36803995B1AAB42ED
:1029B800F2DCEBE7002504F11906F5E76E51000893
:1029C8007F51000838B50023054D044608462B60A2
:1029D80002F018FA431C02D12B6803B1236038BDFA
:1029E800940200200EB46FF0004100B59CB01DABFE
:1029F80002900690079104910848094953F8042B5E
:102A08000591006802A9019301F002FB0022029BD4
:102A18001A701CB05DF804EB03B070471400002076
:102A28000802FFFF0346C9B2184613F8012B12B17A
:102A38008A42F9D17047002918BF0020704730B585
:102A48000446257823460134002DFAD1013A04D3EF
:102A580011F8014B03F8014B04B930BD002AF5D138
:102A68001A70F3E70A7870B56AB970BD9A4209D14D
:102A78000C46054614F8013F002BF6D015F8016FF7
:102A88009E42F7D001300378002BEFD11846ECE7CF
:102A980030B51446002C05461A469BB005DA8B2340
:102AA80003604FF0FF301BB030BD4FF40273ADF838
:102AB8000C300CBF234604F1FF33029305934FF605
:102AC800FF7300910491ADF80E3069461E9B01F02A
:102AD8009FFA431CBCBF8B232B60002CE3D0002241
:102AE800009B1A70DFE7000007B5009313460A46FB
:102AF800014603480068FFF7CBFF03B05DF804FB0D
:102B0800140000202DE9F74F03690C690746A3421A
:102B1800C0F28280013C00F1140501F1140805EBB4
:102B28008403019358F8243055F8242001339A423D
:102B3800B2FBF3F64FEA840B08EB840931D34FF06C
:102B4800000E4046AC46F24650F8042B93B206FB02
:102B580003E3120C4FEA134E9BB206FB02E2AAEB08
:102B68000303DCF800A04FEA124E1FFA8AFA534416
:102B7800DCF800A092B2C2EB1A4202EB23429BB2ED
:102B880043EA024381454FEA224A4CF8043BDBD230
:102B980055F80B302BB9019B043B9D421A462FD3A5
:102BA8003C61384601F0C6F8002825DB28464FF07E
:102BB800000C013658F8041BD0F800E08BB2ACEBDF
:102BC80003031FFA8EF213440A0CC2EB1E4202EBF7
:102BD80023429BB243EA0243C1454FEA224C40F8E4
:102BE800043BE7D255F8242005EB840322B9043BC3
:102BF8009D421A460AD33C61304603B0BDE8F08FC7
:102C08001268043B002ACBD1013CC6E71268043B9A
:102C1800002AF0D1013CEBE70020EEE700000000BD
:102C28002DE9F04F16461F46446A99B00546CDE98E
:102C38000467DDF8948074B91020FFF79BF9024609
:102C4800686220B9EA21A84BA84801F0E1FAC0E976
:102C580001440460C4606B6A196851B15A68012361
:102C680093404A608B60284600F026FE00226B6A7B
:102C78001A603B1EAFBF0023012223F000430593D7
:102C8800A8BFC8F80030DDF81490994BB8BFC8F851
:102C9800002033EA090319D142F20F73249A136012
:102CA800C9F31303334300F07F85269B53B9914B37
:102CB80022E0914B03930833269A1360039819B0C6
:102CC800BDE8F08F8B4B03930333F5E7DDE904345C
:102CD800CDE90C34DDE90C0100220023FDF7CCFE20
:102CE800804658B10123249A1360269B002B00F0DC
:102CF800588582481860431E0393DFE716AB01939B
:102D080017AB00932846DDE90C2301F0BBF8C9F3A3
:102D18000A548346002C7FD0DDE90C010D9BA4F2F8
:102D2800FF34C3F3130343F07F5141F44011CDF84E
:102D38004C800022724BFDF77FFA65A3D3E900238C
:102D4800FDF732FC64A3D3E90023FDF777FA0646C2
:102D580020460F46FDF7BEFB61A3D3E90023FDF72C
:102D680023FC02460B4630463946FDF767FA06460D
:102D78000F46FDF7C9FE0022824600233046394639
:102D8800FDF784FE48B15046FDF7A4FB32463B46AA
:102D9800FDF772FE08B90AF1FF3ABAF1160F58D8D2
:102DA800DDE90C01574B03EBCA03D3E90023FDF718
:102DB8006DFE00284FD000230AF1FF3A0F93169BAF
:102DC8001C1B631E099349BFC4F10103002306932A
:102DD800002354BF06930993BAF1000F3DDB099B0A
:102DE800CDF838A05344099300230A93229B092B5A
:102DF80000F28C80052BC4BF043B2293229BC8BFE2
:102E08000024A3F10203D8BF0124032B00F28A8017
:102E1800DFE803F02D4F4D5BDDE916431C4404F257
:102E28003243202BC3BFC3F1400304F2124009FA16
:102E380003F3C3F12003C6BF26FA00F0184306FACD
:102E480003F0FDF737FB0123A1F1F871013C13935F
:102E58006FE70123B2E70F90B1E7069BA3EB0A03E4
:102E68000693CAF100030A9300230E93BEE70023DA
:102E78000B93239B002B58DC4FF001094B46CDF8F0
:102E88002090CDF88C900022686A4260042202F1FA
:102E980014069E4241684ED9284600F0CDFC0390A6
:102EA80000284CD102464FF4D571174BCCE60123CC
:102EB800DEE700230B93239B0AEB030909F10103C7
:102EC800012B0893B8BF0123DDE70123F2E700BF18
:102ED80061436F63A787D23FB3C8608B288AC63F18
:102EE800FB799F501344D33F9D510008B45100080B
:102EF8000000F07F99510008905100086D510008BA
:102F08000000F83FE852000831520008012400236D
:102F18000B9422934FF0FF3900221223CDF8209012
:102F28002392B0E701230B93F4E7DDF88C904B462E
:102F3800CDF82090A7E7013141605200A7E76B6AFE
:102F4800039A1A60089B0E2B00F2A880002C00F050
:102F5800A580BAF1000F34DD9A4A0AF00F0302EB9C
:102F6800C3031AF4807FD3E90034CDE910344FEA63
:102F78002A1416D0DDE90C01934B0327D3E9082363
:102F8800FDF73CFCCDE9040104F00F048E4E54B962
:102F9800DDE91023DDE90401FDF730FCCDE904018A
:102FA80029E00227F2E7E10708D5DDE91001D6E9B3
:102FB8000023FDF7F9FACDE910010137641008364E
:102FC800E5E700F0A580DDE90C01CAF100047D4BBE
:102FD80004F00F0203EBC203D3E90023FDF7E4FA80
:102FE80002270023CDE90401774E2411002C40F07C
:102FF8008480002BD2D10F9B002B00F08B80DDE961
:103008000434CDE91034DDE9100100226F4BFDF7DF
:103018003DFD00287ED0089B002B7BD0B9F1000F26
:1030280038DDDDE910010022694BFDF7BDFA4C4699
:10303800CDE904010AF1FF3801373846FDF74AFAAD
:10304800DDE90423FDF7B0FA0022624BFDF7F6F83C
:10305800A1F15076CDE910011196002C5DD1DDE982
:10306800040100225C4BFDF7E7F802460B46CDE968
:1030780004233346109AFDF727FD002840F09C8270
:10308800DDE90401109A06F10043FDF7FFFC002872
:1030980040F09082DDE90C34CDE90434179B002B15
:1030A800C0F25281BAF10E0F00F34E81454B03EB8B
:1030B800CA03D3E90034CDE90634239B002B80F200
:1030C800DB80089B002B00F3D78040F07282DDE99B
:1030D80006010022404BFDF767FADDE90423FDF7FE
:1030E800E9FC089C2646002840F048823123039FCB
:1030F8000AF1010A07F8013B44E2E20705D5D6E9DF
:103108000023FDF751FA01230137641008366DE7F3
:10311800022770E7D046089C8FE70399294B214482
:1031280012910B9903EBC403DDE9106753E90223FD
:10313800002955D000202949FDF760FB3B4632465F
:10314800FDF77AF8CDE91001039FDDE90401FDF7E9
:10315800DBFC0446FDF7BEF902460B46DDE9040137
:10316800FDF76AF802460B463034CDE90423DDE961
:10317800102307F8014BFDF789FC002874D1DDE91D
:10318800042300201149FDF757F8DDE91023FDF766
:103198007DFC002840F0B780129B9F423FF47AAF35
:1031A800DDE9100100220A4BFDF7FEF90022CDE906
:1031B8001001DDE90401064BFDF7F6F9CDE904013C
:1031C800C3E700BFE8520008C05200080000F03F03
:1031D8000000244000001C40000014400000E03FB4
:1031E80030463946FDF7E0F9129BCDE91001039C02
:1031F8001493DDE90401FDF787FC1590FDF76AF9E2
:1032080002460B46DDE90401FDF716F8159B064654
:10321800303304F8013B129B0F469C424FF00002EA
:1032280024D1DDE91001B04BFDF708F802460B4642
:1032380030463946FDF748FC002863D1DDE9102304
:103248000020A949FCF7F8FF02460B4630463946EC
:10325800FDF71CFC00283FF41DAF149F7B1E149340
:1032680017F8013C302BF8D0C2463BE09F4BFDF7E6
:103278009BF9CDE90401BCE7039FDDE90489DDE999
:10328800062340464946FDF7B9FAFDF73DFC0446DA
:10329800FDF720F9DDE90623FDF786F902460B461E
:1032A80040464946FCF7C8FF04F1300607F8016BB1
:1032B800039EDDF820C0BE1BB44502460B4636D13E
:1032C800FCF7BCFFDDE9062380468946FDF7FCFBD9
:1032D80058BBDDE9062340464946FDF7CDFB08B15A
:1032E800E10722D42846594600F0E6FA00233B704D
:1032F800249B0AF101001860269B002B3FF4DEACEA
:103308001F60DBE427463B461F4613F8012D392A88
:1033180007D1039A9A42F7D13022039908F101089C
:103328000A701A7801321A709EE7D046EBE700223D
:103338006E4BFDF739F90022002380468946FDF7D8
:103348009BFB00289BD0CDE70B9A002A00F0D08089
:10335800229A012A00F3AE80139A002A00F0A68070
:1033680003F233430A9C069F069A01211A440692E7
:10337800099A28461A44099200F054FB0646002F81
:103388000CDD099B002B09DDBB42A8BF3B46069A12
:10339800FF1AD21A0692099AD31A09930A9BF3B113
:1033A8000B9B002B00F0A880002C10DD3146224634
:1033B800284600F0F5FB5A4601460646284600F026
:1033C80047FB80465946284600F076FAC3460A9BD2
:1033D8001A1B04D05946284600F0E2FB8346012117
:1033E800284600F01FFB0E9B0446002B40F3868006
:1033F8001A460146284600F0D3FB229B0446012BBF
:103408007FDD4FF00008236904EB8303186900F09F
:10341800BBFAC0F12000099B184410F01F0000F00F
:103428009280C0F12003042B40F38A80C0F11C0075
:10343800069B074403440693099B03440993069B90
:10344800002B05DD59461A46284600F003FC834642
:10345800099B002B05DD21461A46284600F0FAFB99
:1034680004460F9B002B70D02146584600F062FCA2
:1034780000286ADA002359460A22284600F03EFA54
:103488000B9B83460AF1FF3A002B00F094813146EA
:1034980000230A22284600F031FAB9F1000F064647
:1034A80000F39380229B022B57DC8EE0169BC3F11E
:1034B800360357E7089B5C1E0A9BA342B7BF0A9BCB
:1034C8001C1BE21A0E9BBEBF0A949B180E93089B06
:1034D800B8BF0024002BBBBF069B089A069F9F1A03
:1034E800ACBF089B00233FE70000E03F00002440FA
:1034F8000A9C069F0B9E42E70A9A6BE7229B012BC8
:1035080019DC049BBBB9059BC3F313039BB9059B4B
:1035180023F000431B0D1B0583B14FF00108069BE8
:1035280001330693099B013309930E9B002B7FF40B
:103538006AAF01206FE74FF00008F6E79846F4E716
:103548003FF47DAF18461C3072E7089B002B36DC31
:10355800229B022B33DDDDF82090B9F1000F0DD14D
:1035680021464B460522284600F0C8F90146044684
:10357800584600F0DFFB00283FF7B8AD239B039FB8
:103588006FEA030A4FF000082146284600F094F934
:10359800002E3FF4A7AEB8F1000F05D0B04503D018
:1035A8004146284600F088F93146284600F084F95B
:1035B80098E600242646E1E7C246264696E50B9B98
:1035C800DDF82090002B00F0FD80002F05DD31464E
:1035D8003A46284600F03EFB0646B8F1000F5CD09C
:1035E8002846716800F028F9074628B9024640F2D3
:1035F800EA217F4BFFF728BB326906F10C01023242
:1036080092000C30FEF7C6FC01223946284600F02D
:1036180021FBB0460646039B01330893039B4B44AA
:103628000A93049B03F001030993089B2146013B7D
:1036380058460493FFF766FA03464146303306902E
:1036480058460B9300F076FB3246814621462846C1
:1036580000F08CFBC26807460B9B02BB014658462C
:1036680000F068FB02460B9B39462846CDE90B3231
:1036780000F022F9229B0C9A089F43EA0201099B59
:103688000B430B9B0DD1392B29D0B9F1000F01DD6C
:10369800069B3133049A137076E73046B9E7012266
:1036A800E2E7B9F1000F06DB229941EA0909099915
:1036B80059EA010120D1002AECDD594601222846A9
:1036C800089300F0C7FA2146834600F033FB002830
:1036D800089B02DCDED1DA07DCD5392BD8D13923B7
:1036E800049A13703B461F4617F8012C013B392AF0
:1036F80050D001321A7047E7002A03DD392BEED08B
:103708000133C7E7089A0A9902F8013C8A422AD08D
:10371800594600230A22284600F0F0F8B0458346AF
:103728004FF000034FF00A024146284607D100F047
:10373800E5F880460646089B0133089375E700F0D4
:10374800DDF83146804600230A22284600F0D6F8E4
:103758000646F0E7B9F1000FCCBF4F4601274FF0FE
:103768000008039A1744594601222846089300F096
:1037780071FA2146834600F0DDFA0028B2DC02D156
:10378800089BDB07AED43B461F4613F8012D302AB1
:10379800FAD0F9E6039A9A42A5D131230AF1010A2F
:1037A80079E7144BFFF7A8BA269B002B7FF481AA70
:1037B800114BFFF7A1BAB9F1000F03DC229B022BD2
:1037C8003FF7CBAE039F21465846FFF79BF9039A74
:1037D80000F1300307F8013BBA1A9145BADD5946A2
:1037E80000230A22284600F089F88346EBE700BF49
:1037F800315200086C510008905100080048704789
:1038080068010020034610B5C9B202449342184625
:1038180001D1002003E0047801338C42F6D110BDB9
:10382800014800F026BD00BF98020020014800F0C2
:1038380021BD00BF9802002070B5466A04460D46B7
:1038480076B91020FEF796FB0246606220B9662121
:10385800174B184800F0DCFCC0E901660660C6603A
:10386800666AF36883B1636ADB6853F82500B8B900
:10387800012101FA05F6721D2046920000F05EFB58
:1038880060B1C0E901560EE021220421204600F073
:1038980055FB636AF060DB68002BE4D1002070BD43
:1038A800026843F825200023C0E90333F7E700BF87
:1038B8009D5100084252000870B5466A05460C46FC
:1038C80076B91020FEF756FB0246686220B98A21B5
:1038D800084B094800F09CFCC0E901660660C66018
:1038E8003CB16B6A6268DB6853F82210216043F8C8
:1038F800224070BD9D510008425200082DE9F04158
:1039080007460C461E4600200D6901F1140CDCF830
:103918000030013099B202FB01611E0C0B0C02FB56
:10392800063389B201EB034185424FEA13464CF84E
:10393800041BECDC0EB3A368AB4219DC61683846A3
:103948000131FFF779FF804628B90246B5210C4BB3
:103958000C4800F05DFC226904F10C01023292006F
:103968000C30FEF717FB21463846FFF7A5FF444603
:1039780004EB850301355E6125612046BDE8F081D1
:103988003152000842520008020C12040346CAB918
:103998000304102013F07F4F04BF1B02083013F0FC
:1039A800704F04BF1B01043013F0404F04BF9B004D
:1039B8000230002B05DB13F0804F00F1010008BF37
:1039C800202070470020E5E70368024613F007004F
:1039D8000BD0D90721D4980749BF5B089B08012061
:1039E80013605CBF02201360704799B209B91020B8
:1039F8001B0CD9B209B908301B0A190704BF1B09E7
:103A08000430990704BF9B080230D90703D45B0828
:103A180000F1010003D01360704700207047202098
:103A28007047000010B50C460121FFF705FF02465C
:103A380028B94FF4A071044B044800F0E9FB0123B6
:103A48004461036110BD00BF3152000842520008B2
:103A58002DE9F04F91460A69D9F810300C469A4280
:103A6800BEBF0B464C4699462769D9F810A0A368F3
:103A7800616807EB0A06B34285B0B8BF0131FFF7AA
:103A8800DBFE30B9024640F25D11434B434800F07B
:103A9800BFFB00F114052B46002205EB86084345C1
:103AA80021D304F1140303EB870709F1140303EB93
:103AB8008A0202923A1B153A22F00302043204F1F8
:103AC80015018F4238BF04220192029A03939A4249
:103AD8000CD8002E03DD58F8043D002B59D00661A0
:103AE80005B0BDE8F08F43F8042BD8E7B3F800A081
:103AF800BAF1000F23D0A9464FF0000C04F1140EC0
:103B08005EF8042BD9F800101FFA82FB89B20AFB71
:103B18000B116144D9F800C0120C4FEA1C4C0AFB87
:103B280002C202EB114289B241EA024177454FEAEB
:103B3800124C49F8041BE3D8019A45F802C0039ACD
:103B48000433B2F80290B9F1000F20D0AE464FF01E
:103B5800000A296804F1140CBCF800B0BEF8022071
:103B680089B209FB0B22924441EA0A414EF8041B30
:103B78005CF8042BBEF80010120C09FB0211674513
:103B880001EB1A414FEA114AE6D8019AA9500435C7
:103B98009BE7013E9DE700BF3152000842520008F2
:103BA8002DE9F843154612F0030206460F4607D0E2
:103BB800254C013A002354F82220FFF79FFE0746C0
:103BC800AD103DD0746A7CB91020FEF7D3F90246D7
:103BD800706228B94FF4D7711C4B1D4800F018FBD0
:103BE800C0E901440460C460D6F82480D8F80840CD
:103BF8004CB940F271213046FFF714FF0023044608
:103C0800C8F8080003604FF00009EB070AD53946E9
:103C180022463046FFF71CFF804639463046FFF7FC
:103C28004BFE47466D100BD0206838B92246214616
:103C38003046FFF70DFF2060C0F800900446E4E727
:103C48003846BDE8F88300BFB05300089D5100080E
:103C5800425200082DE9F0470C4607469146236971
:103C6800496803EB6218A3684FEA621A08F1010673
:103C7800B3420BDB3846FFF7DFFD054648B902467D
:103C880040F2D911294B2A4800F0C2FA01315B00F1
:103C9800EEE7002300F1140100F110021846534525
:103CA80037DB20692AEAEA7A04F1140319F01F09BC
:103CB80001EB8A0103EB80002FD08A464FF0000CFD
:103CC800C9F1200E1A6802FA09F242EA0C024AF80F
:103CD800042B53F8042B984222FA0EFCF2D8031B4B
:103CE800153B23F00303043304F11502904238BF57
:103CF800042341F803C0BCF1000F01D008F102060B
:103D0800013E384621462E61FFF7D6FD2846BDE81C
:103D1800F08742F8040F0133C1E7043953F8042B44
:103D2800984241F8042FF9D8EAE700BF3152000859
:103D38004252000803460A69006930B5801A0DD15D
:103D48001433143103EB820401EB820154F8045D4F
:103D580051F8042D954202D004D3012030BDA3426E
:103D6800F4D3FBE74FF0FF30F8E700002DE9F84FF8
:103D78000D460746114628461446FFF7DBFF061E88
:103D880011D131463846FFF757FD024628B940F2AF
:103D980032213A4B3A4800F03BFA0123C0E9043695
:103DA8001046BDE8F88FA4BF23462C463846616804
:103DB800A6BF1D4600260126FFF73EFD024618B99C
:103DC8004FF410712D4BE5E702F11408C2464FF08D
:103DD800000C2769C6602E6904F1140005F1140966
:103DE80000EB870E09EB8606103454F804BF59F827
:103DF800043B1FFA8BF18C4499B21B0CACEB01010C
:103E0800C3EB1B4303EB214389B24FEA234C4E45D6
:103E180041EA03434AF8043BE7D8731B153B23F0F8
:103E2800030315350433AE4238BF04231844434412
:103E38001E46054675450ED30EF10301091A21F0F9
:103E480003010338864538BF0021194451F8043D61
:103E58008BB11761A4E755F8048B1FFA88F1614408
:103E68000C1404EB184489B241EA04414FEA244C8B
:103E780046F8041BDEE7013FE8E700BF31520008BF
:103E8800425200082DE9F3410121DDE90876904608
:103E98001D46FFF7D1FC044630B9024640F20A310C
:103EA800244B254800F0B4F9C5F31303C5F30A55AC
:103EB8002DBB0193B8F1000326D068460093FFF7A5
:103EC80083FD0099F0B1019AC0F1200302FA03F3CF
:103ED8000B43C24063610192019B002B14BF022176
:103EE8000121A3612161C5B1A5F233450544C0F1A3
:103EF80035003D603060204602B0BDE8F08143F4F3
:103F08008013D6E76161E7E701A8FFF75DFD0121AE
:103F1800019B216163612030E5E704EB8103A0F296
:103F2800324038601869FFF72FFDC0EB411131604E
:103F3800E1E700BF315200084252000838B502FBE1
:103F480001F52946FEF784F8044618B12A460021EF
:103F5800FEF72EF8204638BD2DE9F0478E688246D8
:103F68009E420C4690461F4638D88A8912F4906FB4
:103F780032D0256809690133A5EB010965694B440D
:103F880005EB450505EBD5756D109D4238BF1D46FF
:103F9800530531D52946FEF75BF8064650B90C2380
:103FA8004FF0FF30CAF80030A38943F04003A381E3
:103FB800BDE8F0874A462169FDF7ECFFA38923F4A1
:103FC800906343F08003A38126614E4426603E46F9
:103FD8006561A5EB0905A560BE4200D93E4632469B
:103FE8004146206800F059F9A36800209B1BA36094
:103FF800236833442360DBE72A4600F068F9064665
:104008000028E1D150462169FDF7DAFFC7E7000033
:104018002DE9F04F98468B8907461B060D46144636
:104028009DB00ED50B6963B94021FEF711F82860E1
:10403800286120B90C233B604FF0FF30D1E04023CA
:104048006B610023099320238DF8293030234FF02A
:104058000109CDF80C80DFF8A4818DF82A302346B9
:104068009A4613F8012B0AB1252AF9D1BAEB040BA9
:104078000BD05B46224629463846FFF76DFF0130D4
:1040880000F0AA80099A5A4409929AF80030002B45
:1040980000F0A28000234FF0FF32CDE905230AF19A
:1040A800010A049307938DF853301A935446052256
:1040B80014F8011B5148FFF7A5FB049AD8B9D0069C
:1040C80044BF20238DF85330110744BF2B238DF8AC
:1040D80053309AF800302A2B15D0544600204FF060
:1040E8000A0C079A214611F8013B303B092B4ED99F
:1040F800B0B1079214E0A0EB080309FA03F31343E5
:10410800A2460493D2E7039B191D1B680391002B59
:10411800BBBF5B4242F0020207930793B8BF049209
:1041280023782E2B0CD163782A2B35D1039B0234AC
:104138001A1D1B680392002BB8BF4FF0FF3305937D
:10414800DFF8BCA0032250462178FFF75BFB40B1A3
:104158004023A0EB0A0003FA00F0049B0134034358
:10416800049314F8011B062226488DF82810FFF73F
:1041780049FB002838D0244B1BBB039B073323F093
:10418800070308330393099B3344099367E70C46F5
:1041980001200CFB0232A5E700234FF00A0C194658
:1041A80001340593204610F8012B303A092A03D927
:1041B800002BC5D00591C3E7044601230CFB012160
:1041C800F0E703AB00932A463846104B04A9FEF7E4
:1041D80037F8421C0646D6D1AB895B063FF52CAFB3
:1041E80009981DB0BDE8F08F03AB00932A46384606
:1041F800064B04A9FEF7C0FAEBE700BFBC53000862
:10420800C2530008C653000849220008613F00084D
:104218001FB514461A46094B05461B68D8684CB1A9
:10422800074BCDE9013400912B46064900F00EF802
:1042380000F098FA044B1C46F3E700BF1400002076
:10424800CD530008DA530008085400080EB403B52B
:10425800014603AB054853F8042B0068019300F0AE
:1042680083F802B05DF804EB03B070471400002037
:1042780070477047704782B001B901A942B14BB18C
:1042880013780B601278101E18BF012002B0704717
:104298001046FBE76FF00100F8E7884210B501EB24
:1042A800020402D98442234607D8431EA14208D0FB
:1042B80011F8012B03F8012FF8E7014602448A425E
:1042C80000D110BD13F8014D02F8014DF7E7F8B51C
:1042D800074614460E4621B91146BDE8F840FDF7D9
:1042E800B7BE22B9FDF76CFE25462846F8BD00F09A
:1042F80059FCA0420FD221463846FDF7A9FE0546D3
:104308000028F2D031462246FDF744FE31463846B1
:10431800FDF756FEE9E73546E7E7936810B4013B39
:10432800002B936007DA9469A34201DB0A2902D1C2
:1043380010BC00F049B91368581C10601970084681
:1043480010BC7047F8B506460F461446D518AC425F
:1043580001D1002007E03A46304614F8011BFFF768
:10436800DCFF431CF3D1F8BD2DE9F04F0D46144690
:10437800984606469DB018B183690BB900F010FB4A
:10438800894B9D421BD175686B6ED90705D4AB89E3
:104398009A0502D4A86DFFF76CFFAB891B0701D5FE
:1043A8002B69EBB92946304600F06EF9C0B16B6E47
:1043B800DC070ED54FF0FF301DB0BDE8F08F7B4B0A
:1043C8009D4201D1B568DFE7794B9D4208BFF5688A
:1043D800DAE7AB899805EDD4A86DFFF74BFFE9E75D
:1043E8000023099320238DF8293030234FF0010949
:1043F800CDF80C80DFF8BC818DF82A3023469A4628
:1044080013F8012B0AB1252AF9D1BAEB040B0BD00A
:104418005B46224629463046FFF794FF013000F0FC
:10442800AA80099A5A4409929AF80030002B00F0A1
:10443800A28000234FF0FF32CDE905230AF1010ADB
:10444800049307938DF853301A935446052214F8B1
:10445800011B5848FFF7D6F9049AD8B9D10644BFCA
:1044680020238DF85330130744BF2B238DF8533086
:104478009AF800302A2B15D0544600204FF00A0C29
:10448800079A214611F8013B303B092B4ED9B0B1B0
:10449800079214E0A0EB080309FA03F31343A246BA
:1044A8000493D2E7039B191D1B680391002BBBBF24
:1044B8005B4242F0020207930793B8BF0492237845
:1044C8002E2B0CD163782A2B35D1039B02341A1D6D
:1044D8001B680392002BB8BF4FF0FF330593DFF83A
:1044E800D8A0032250462178FFF78CF940B1402329
:1044F800A0EB0A0003FA00F0049B01340343049381
:1045080014F8011B06222D488DF82810FFF77AF9B8
:1045180000283FD02A4B1BBB039B073323F007031C
:1045280008330393099B3B44099367E70C46012032
:104538000CFB0232A5E700234FF00A0C19460134A0
:104548000593204610F8012B303A092A03D9002B8D
:10455800C5D00591C3E7044601230CFB0121F0E710
:1045680003AB00932A463046164B04A9FDF768FEB4
:104578000746781CD6D16B6ED90705D4AB899A0546
:1045880002D4A86DFFF776FEAB895B063FF512AF44
:10459800099811E703AB00932A463046094B04A952
:1045A800FEF7EAF8E4E700BF345500085455000860
:1045B80014550008BC530008C2530008C65300082D
:1045C800492200084D430008F8B50E461446054632
:1045D80018B183690BB900F0E3F9214B9C422BD148
:1045E8006C68A369A360A3891A072FD523696BB3E5
:1045F80023692068F6B2C01A63693746834204DC2F
:104608002146284600F038F930BBA3680130013B49
:10461800A36023685A1C22601E706369834204D019
:10462800A389DB0706D50A2E04D12146284600F0C7
:1046380023F988B93846F8BD0A4B9C4201D1AC68C9
:10464800CFE7094B9C4208BFEC68CAE721462846D9
:1046580000F01AF80028CBD04FF0FF37EAE700BF88
:1046680034550008545500081455000803460846F8
:1046780041B1FF2A04D98A224FF0FF301A607047EF
:1046880001200A7070470000324B70B51D6806465D
:104698000C4625B1AB6913B9284600F081F92E4BB9
:1046A8009C420FD16C68A389B4F90C2019072CD44B
:1046B800DD0611D40923336042F040034FF0FF3088
:1046C800A3813EE0254B9C4201D1AC68EBE7244B2B
:1046D8009C4208BFEC68E6E7580712D5616B41B108
:1046E80004F14403994202D03046FDF769FC0023E7
:1046F8006363A38923F02403A381002363602369F0
:104708002360A38943F00803A38123694BB9A389D4
:1047180003F42073B3F5007F03D02146304600F040
:1047280001FAA089B4F90C2010F001030AD0002383
:10473800A36063695B42A361236943B910F08000F9
:10474800BAD170BD810758BF6369A360F4E7002040
:10475800F7E700BF1400002034550008545500083E
:1047680014550008062008B500F04CFA012000F0A6
:104778005FFB00008A89F8B5054610070C4657D438
:104788004B68002B04DC0B6C002B01DC0020F8BD0F
:10479800E66A002EFAD0002312F480522F682B60AC
:1047A80032D0606DA3895A0705D56368C01A636B58
:1047B8000BB1236CC01A00230246E66A2846216A18
:1047C800B047431CA38906D129681D292CD8294A3A
:1047D800CA40D60728D5002262602269D90422601F
:1047E80004D5421C01D12B6803B96065616B2F6049
:1047F8000029CBD004F14403994202D02846FDF7A2
:10480800DFFB00206063C2E7216A01232846B04726
:10481800411CC7D12B68002BC4D01D2B01D0162BEF
:1048280001D12F60B2E7A38943F04003A381AEE72B
:104838000F69002FAAD0930718BF00230E6808BF7E
:104848004B69F61B0F608B60002E9FDD33463A469E
:104858002846216AD4F828C0E047002806DCA38946
:104868004FF0FF3043F04003A38190E70744361A26
:10487800EAE700BF0100402038B50B6905460C4641
:1048880013B90025284638BD18B183690BB900F063
:1048980087F8144B9C421BD16C68B4F90C30002B80
:1048A800EFD0626ED00704D4990502D4A06DFFF74B
:1048B800E0FC28462146FFF75DFF636E0546DA07F0
:1048C800E0D4A3899B05DDD4A06DFFF7D3FCD9E71D
:1048D800054B9C4201D1AC68DFE7044B9C4208BF02
:1048E800EC68DAE7345500085455000814550008F8
:1048F800002310B50446C0E90033C0E904338360DF
:1049080081814366C2818361194608225C30FDF7C4
:104918004FFB054B24626362044BA362044BE362C2
:10492800044B236310BD00BF454C0008674C0008CA
:104938009F4C0008C34C0008014900F0AFB800BF05
:1049480081480008682270B54D1E55430E4605F192
:104958007401FDF77DFB044640B10021C0E9001653
:104968000C30A06005F16802FDF722FB204670BDFF
:104978000148FFF77EBC00BF990200200148FFF7FD
:1049880079BC00BF990200200148FFF772BC00BF44
:104998009A0200200148FFF76DBC00BF9A02002070
:1049A80010B50446FFF7F0FFA3691BB1BDE810403E
:1049B800FFF7F0BFC4E912332365134B134A1B6892
:1049C800A262A34208BF0123204608BFA36100F0EA
:1049D8001FF86060204600F01BF8A060204600F039
:1049E80017F800220421E0606068FFF781FF0122C8
:1049F8000921A068FFF77CFF02221221E068FFF777
:104A080077FF0123A361D1E7585100084149000805
:104A1800F8B50746FFF7ACFF1E4B1E68B36913B91C
:104A28003046FFF7BDFF4836D6E90134013B03D5D0
:104A380033680BB33668F7E7B4F90C50D5B9164BA1
:104A480004F15800E3606566FFF712FCFFF796FF74
:104A580008222946C4E90155C4E904552560A56121
:104A680004F15C00FDF7A4FAC4E90D55C4E9125538
:104A78002046F8BD6834D9E704213846FFF762FFBD
:104A8800044630600028D5D1FFF778FF0C233B603F
:104A9800EEE700BF585100080100FFFF2DE9F84379
:104AA80006468846002700F14804D4E90195B9F183
:104AB800010905D52468002CF7D13846BDE8F883EC
:104AC800AB89012B07D9B5F90E30013303D029463C
:104AD8003046C04707436835E9E770B50E46B1F977
:104AE8000E10144600291D4696B008DA0022B6F9C1
:104AF8000C302A601A0610D44FF480630EE06A4620
:104B080000F002F90028F1DB019A02F47042A2F5E4
:104B180000535A425A412A60EEE74023002023609E
:104B280016B070BD8B8973B59D0706460C4607D530
:104B380004F14703236023610123636102B070BD60
:104B48006A4601ABFFF7C9FF009905463046FDF7F5
:104B58007FFA48B9B4F90C309A05EFD423F003036F
:104B680043F00203A381E3E70D4BB362A3892060FE
:104B780043F08003A381009B20616361019B5BB1CB
:104B88003046B4F90E1000F0D1F828B1A38923F00B
:104B9800030343F00103A381A0890543A581CDE761
:104BA8004149000851F8043C181F002BBCBF0B58A2
:104BB800C01870471F2938B504460D4604D9162376
:104BC80003604FF0FF3038BD426C12B152F821300B
:104BD8004BB9204600F030F82A4601462046BDE889
:104BE800384000F017B8012B0AD0591C03D11623FE
:104BF80003600120E7E70024284642F8254098474B
:104C08000020E0E7024B01461868FFF7D3BF00BF5A
:104C18001400002038B50023064D04460846114606
:104C28002B6000F0D7F8431C02D12B6803B1236036
:104C380038BD00BF9402002000F0BCB810B50C4687
:104C4800B1F90E1000F094F80028ABBF636DA3898A
:104C58001B1823F48053ACBF6365A38110BD2DE9F5
:104C6800F0411F468B890546DB050C46164605D5DF
:104C780002230022B1F90E1000F068F8A389324629
:104C880023F48053A38128463B46B4F90E10BDE8AF
:104C9800F04100F017B810B50C46B1F90E1000F04D
:104CA80055F8431CA38915BF606523F4805343F46A
:104CB8008053A38118BFA38110BDB1F90E1000F075
:104CC80013B8000038B50446084611460022054DC1
:104CD8002A601A4600F0A4F8431C02D12B6803B1DD
:104CE800236038BD9402002038B50023054D0446E2
:104CF80008462B6000F04EF8431C02D12B6803B124
:104D0800236038BD9402002038B50023064D0446C0
:104D1800084611462B6000F045F8431C02D12B6869
:104D280003B1236038BD00BF9402002038B50023CA
:104D3800054D044608462B6000F044F8431C02D198
:104D48002B6803B1236038BD9402002038B50446AF
:104D5800084611460022054D2A601A4600F042F81E
:104D6800431C02D12B6803B1236038BD9402002094
:104D780038B50446084611460022054D2A601A46F1
:104D880000F038F8431C02D12B6803B1236038BD0A
:104D9800940200205822024B4FF0FF301A607047EF
:104DA800940200205822024B4FF0FF301A607047DF
:104DB800940200205822024B4FF0FF301A607047CF
:104DC800940200205822024B00201A60704700BF4E
:104DD800940200205822024B4FF0FF301A607047AF
:104DE800940200205822024B4FF0FF301A6070479F
:104DF800940200205822024B4FF0FF301A6070478F
:104E080094020020044A05491368002B08BF0B468A
:104E180018441060184670479C020020A002002029
:104E28005822024B4FF0FF301A607047940200205E
:104E3800FEE700BF313233343500000034373139F2
:104E4800383900004F6E654E65745F4465764C696D
:104E58006E6B0D0A50524F49443A2025732C094174
:104E68005549463A2025732C0944455649443A2564
:104E7800730D0A00383537353639333537000000B9
:104E8800546970733A09E8BF9EE68EA5E68890E5F6
:104E98008A9F0D0A000000005741524E3A09E8BFA8
:104EA8009EE68EA5E5A4B1E8B4A5EFBC9AE58D8F82
:104EB800E8AEAEE99499E8AFAF0D0A005741524EFB
:104EC8003A09E8BF9EE68EA5E5A4B1E8B4A5EFBC13
:104ED8009AE99D9EE6B395E79A84636C69656E745A
:104EE80069640D0A000000005741524E3A09E8BFB4
:104EF8009EE68EA5E5A4B1E8B4A5EFBC9AE69C8D24
:104F0800E58AA1E599A8E5A4B1E8B4A50D0A0000D1
:104F18005741524E3A09E8BF9EE68EA5E5A4B1E88E
:104F2800B4A5EFBC9AE794A8E688B7E5908DE68823
:104F380096E5AF86E7A081E99499E8AFAF0D0A003E
:104F48005741524E3A09E8BF9EE68EA5E5A4B1E85E
:104F5800B4A5EFBC9AE99D9EE6B395E993BEE68EAB
:104F6800A528E6AF94E5A682746F6B656EE99D9EF1
:104F7800E6B395290D0A00004552523A09E8BF9E4A
:104F8800E68EA5E5A4B1E8B4A5EFBC9AE69CAAE72D
:104F98009FA5E99499E8AFAF0D0A00005741524E1A
:104FA8003A094D5154545F5061636B6574436F6E99
:104FB8006E656374204661696C65640D0A000000C3
:104FC8004C45445F4F4E00004C45445F4F464600F9
:104FD800636D6469643A2025732C207265713A20E8
:104FE80025732C207265715F6C656E3A2025640DFF
:104FF8000A000000546970733A0953656E642043CF
:105008006D64526573700D0A000000005469707376
:105018003A094D515454205075626C697368205395
:10502800656E64204F4B0D0A000000002463726512
:105038007100000024637273702F000041542B43E9
:10504800495053454E443D25640D0A003E0000007A
:1050580054435000222573222C222573222C2573B9
:105068000D0A000041542B43495053544152543DBA
:1050780025730000434F4E4E4543540041542B4383
:10508800574A41503D222573222C222573220D0AAE
:10509800000000004F4B00004950442C0000000065
:1050A800312E2041540D0A0041540D0A0000000021
:1050B800322E2043574D4F44450D0A0041542B438F
:1050C800574D4F44453D310D0A000000332E204115
:1050D800542B4357444843500D0A000041542B4376
:1050E80057444843503D312C310D0A00342E20439B
:1050F800574A41500D0A0000683132333435362E94
:10510800000000005265646D69204B3430000000D7
:10511800352E2043495053544152540D0A00000083
:1051280036303032000000003138332E3233302E22
:1051380034302E3339000000362E20455350383293
:10514800363620496E6974204F4B0D0A0000000066
:1051580018000020494E4600696E66004E414E0018
:105168006E616E00300030313233343536373839BD
:1051780041424344454600303132333435363738BE
:105188003961626364656600496E66696E6974793F
:10519800004E614E005245454E54206D616C6C6F57
:1051A8006320737563636565646564002F6D6E7451
:1051B8002F776F726B73706163652F776F726B7384
:1051C800706163652F4743432D31302D70697065D9
:1051D8006C696E652F6A656E6B696E732D47434304
:1051E8002D31302D706970656C696E652D34385FAE
:1051F80032303230313132345F3136303631383056
:105208003634312F7372632F6E65776C69622F6E37
:1052180065776C69622F6C6962632F7374646C695B
:10522800622F64746F612E630042616C6C6F63203F
:10523800737563636565646564002F6D6E742F779D
:105248006F726B73706163652F776F726B737061C8
:1052580063652F4743432D31302D706970656C6944
:105268006E652F6A656E6B696E732D4743432D31EA
:10527800302D706970656C696E652D34385F323019
:105288003230313132345F313630363138303634BD
:10529800312F7372632F6E65776C69622F6E657735
:1052A8006C69622F6C6962632F7374646C69622F16
:1052B8006D707265632E63000080E03779C34143E7
:1052C800176E05B5B5B89346F5F93FE9034F384D64
:1052D800321D30F94877825A3CBF737FDD4F157510
:1052E800000000000000F03F000000000000244023
:1052F80000000000000059400000000000408F40FE
:10530800000000000088C34000000000006AF84068
:105318000000000080842E4100000000D01263418C
:105328000000000084D797410000000065CDCD4102
:10533800000000205FA00242000000E876483742E3
:10534800000000A2941A6D42000040E59C30A24281
:105358000000901EC4BCD64200003426F56B0C43F6
:105368000080E03779C3414300A0D885573476439D
:1053780000C84E676DC1AB43003D9160E458E143FE
:10538800408CB5781DAF154450EFE2D6E41A4B4473
:1053980092D54D06CFF08044F64AE1C7022DB544B8
:1053A800B49DD9794378EA4405000000190000004B
:1053B8007D000000232D302B2000686C4C006566B2
:1053C80067454647002C2066756E6374696F6E3AB0
:1053D8002000617373657274696F6E2022257322D1
:1053E800206661696C65643A2066696C65202225CF
:1053F80073222C206C696E65202564257325730A39
:10540800004300504F534958002E00002020202010
:10541800202020202028282828282020202020205C
:10542800202020202020202020202020881010103C
:105438001010101010101010101010100404040494
:105448000404040404041010101010101041414109
:105458004141410101010101010101010101010174
:105468000101010101010110101010101042424207
:105478004242420202020202020202020202020244
:1054880002020202020202101010102000000000A6
:105498000000000000000000000000000000000004
:1054A80000000000000000000000000000000000F4
:1054B80000000000000000000000000000000000E4
:1054C80000000000000000000000000000000000D4
:1054D80000000000000000000000000000000000C4
:1054E80000000000000000000000000000000000B4
:1054F80000000000000000000000000000000000A4
:105508000000000000000000000000000000000093
:105518000000000000000000000000000000000083
:105528000000000000000000000000000000000073
:105538000000000000000000000000000000000063
:105548000000000000000000000000000000000053
:105558000000000000000000000000000000000043
:10556800000000000000000000000000F8B500BFC7
:10557800F8BC08BC9E467047F8B500BFF8BC08BC2C
:045588009E46704784
:04558C000D02000804
:04559000E901000825
:1055940002040608000000000102030401020304DF
:1055A4000607080918000020000000003455000810
:1055B40054550008145500080000000000000000C5
:1055C40000000000000000000000000000000000D7
:1055D40000000000000000000000000000000000C7
:1055E40000000000000000000000000000000000B7
:1055F40000000000000000000000000000000000A7
:105604000000000000000000430000000000000053
:105614000000000000000000000000000000000086
:105624000000000000000000430000000000000033
:105634000000000000000000000000000000000066
:105644000000000000000000430000000000000013
:105654000000000000000000000000000000000046
:1056640000000000000000004300000000000000F3
:105674000000000000000000000000000000000026
:1056840000000000000000004300000000000000D3
:105694000000000000000000000000000000000006
:1056A40000000000000000004300000000000000B3
:1056B40000000000000000000000000000000000E6
:1056C4000000000000000000430000000000000093
:1056D40000000000000000000000000000000000C6
:1056E4000000000000000000754600087F4200082A
:1056F4000000000013540008115400080854000866
:105704000854000808540008085400080854000805
:1057140008540008085400080854000808540008F5
:10572400FFFFFFFFFFFFFFFFFFFFFFFFFFFF000083
:1057340001004153434949000000000000000000FB
:105744000000000000000000000000000000000055
:1057540000004153434949000000000000000000DC
:105764000000000000000000000000000000000035
:045774000000000031
:0400000508001EE9E8
:00000001FF
